{
  "_format": "hh-sol-artifact-1",
  "contractName": "LearnToken",
  "sourceName": "contracts/LearnToken.sol",
  "abi": [
    {
      "inputs": [],
      "stateMutability": "nonpayable",
      "type": "constructor"
    },
    {
      "inputs": [
        {
          "internalType": "address",
          "name": "spender",
          "type": "address"
        },
        {
          "internalType": "uint256",
          "name": "allowance",
          "type": "uint256"
        },
        {
          "internalType": "uint256",
          "name": "needed",
          "type": "uint256"
        }
      ],
      "name": "ERC20InsufficientAllowance",
      "type": "error"
    },
    {
      "inputs": [
        {
          "internalType": "address",
          "name": "sender",
          "type": "address"
        },
        {
          "internalType": "uint256",
          "name": "balance",
          "type": "uint256"
        },
        {
          "internalType": "uint256",
          "name": "needed",
          "type": "uint256"
        }
      ],
      "name": "ERC20InsufficientBalance",
      "type": "error"
    },
    {
      "inputs": [
        {
          "internalType": "address",
          "name": "approver",
          "type": "address"
        }
      ],
      "name": "ERC20InvalidApprover",
      "type": "error"
    },
    {
      "inputs": [
        {
          "internalType": "address",
          "name": "receiver",
          "type": "address"
        }
      ],
      "name": "ERC20InvalidReceiver",
      "type": "error"
    },
    {
      "inputs": [
        {
          "internalType": "address",
          "name": "sender",
          "type": "address"
        }
      ],
      "name": "ERC20InvalidSender",
      "type": "error"
    },
    {
      "inputs": [
        {
          "internalType": "address",
          "name": "spender",
          "type": "address"
        }
      ],
      "name": "ERC20InvalidSpender",
      "type": "error"
    },
    {
      "inputs": [
        {
          "internalType": "address",
          "name": "owner",
          "type": "address"
        }
      ],
      "name": "OwnableInvalidOwner",
      "type": "error"
    },
    {
      "inputs": [
        {
          "internalType": "address",
          "name": "account",
          "type": "address"
        }
      ],
      "name": "OwnableUnauthorizedAccount",
      "type": "error"
    },
    {
      "anonymous": false,
      "inputs": [
        {
          "indexed": true,
          "internalType": "address",
          "name": "owner",
          "type": "address"
        },
        {
          "indexed": true,
          "internalType": "address",
          "name": "spender",
          "type": "address"
        },
        {
          "indexed": false,
          "internalType": "uint256",
          "name": "value",
          "type": "uint256"
        }
      ],
      "name": "Approval",
      "type": "event"
    },
    {
      "anonymous": false,
      "inputs": [
        {
          "indexed": true,
          "internalType": "address",
          "name": "previousOwner",
          "type": "address"
        },
        {
          "indexed": true,
          "internalType": "address",
          "name": "newOwner",
          "type": "address"
        }
      ],
      "name": "OwnershipTransferred",
      "type": "event"
    },
    {
      "anonymous": false,
      "inputs": [
        {
          "indexed": true,
          "internalType": "address",
          "name": "from",
          "type": "address"
        },
        {
          "indexed": true,
          "internalType": "address",
          "name": "to",
          "type": "address"
        },
        {
          "indexed": false,
          "internalType": "uint256",
          "name": "value",
          "type": "uint256"
        }
      ],
      "name": "Transfer",
      "type": "event"
    },
    {
      "inputs": [],
      "name": "MAX_SUPPLY",
      "outputs": [
        {
          "internalType": "uint256",
          "name": "",
          "type": "uint256"
        }
      ],
      "stateMutability": "view",
      "type": "function"
    },
    {
      "inputs": [
        {
          "internalType": "address",
          "name": "owner",
          "type": "address"
        },
        {
          "internalType": "address",
          "name": "spender",
          "type": "address"
        }
      ],
      "name": "allowance",
      "outputs": [
        {
          "internalType": "uint256",
          "name": "",
          "type": "uint256"
        }
      ],
      "stateMutability": "view",
      "type": "function"
    },
    {
      "inputs": [
        {
          "internalType": "address",
          "name": "spender",
          "type": "address"
        },
        {
          "internalType": "uint256",
          "name": "value",
          "type": "uint256"
        }
      ],
      "name": "approve",
      "outputs": [
        {
          "internalType": "bool",
          "name": "",
          "type": "bool"
        }
      ],
      "stateMutability": "nonpayable",
      "type": "function"
    },
    {
      "inputs": [
        {
          "internalType": "address",
          "name": "account",
          "type": "address"
        }
      ],
      "name": "balanceOf",
      "outputs": [
        {
          "internalType": "uint256",
          "name": "",
          "type": "uint256"
        }
      ],
      "stateMutability": "view",
      "type": "function"
    },
    {
      "inputs": [
        {
          "internalType": "uint256",
          "name": "amount",
          "type": "uint256"
        }
      ],
      "name": "burn",
      "outputs": [],
      "stateMutability": "nonpayable",
      "type": "function"
    },
    {
      "inputs": [],
      "name": "decimals",
      "outputs": [
        {
          "internalType": "uint8",
          "name": "",
          "type": "uint8"
        }
      ],
      "stateMutability": "view",
      "type": "function"
    },
    {
      "inputs": [
        {
          "internalType": "address",
          "name": "to",
          "type": "address"
        },
        {
          "internalType": "uint256",
          "name": "amount",
          "type": "uint256"
        }
      ],
      "name": "mint",
      "outputs": [],
      "stateMutability": "nonpayable",
      "type": "function"
    },
    {
      "inputs": [],
      "name": "name",
      "outputs": [
        {
          "internalType": "string",
          "name": "",
          "type": "string"
        }
      ],
      "stateMutability": "view",
      "type": "function"
    },
    {
      "inputs": [],
      "name": "owner",
      "outputs": [
        {
          "internalType": "address",
          "name": "",
          "type": "address"
        }
      ],
      "stateMutability": "view",
      "type": "function"
    },
    {
      "inputs": [],
      "name": "quizManager",
      "outputs": [
        {
          "internalType": "address",
          "name": "",
          "type": "address"
        }
      ],
      "stateMutability": "view",
      "type": "function"
    },
    {
      "inputs": [],
      "name": "renounceOwnership",
      "outputs": [],
      "stateMutability": "nonpayable",
      "type": "function"
    },
    {
      "inputs": [
        {
          "internalType": "address",
          "name": "_quizManager",
          "type": "address"
        }
      ],
      "name": "setQuizManager",
      "outputs": [],
      "stateMutability": "nonpayable",
      "type": "function"
    },
    {
      "inputs": [],
      "name": "symbol",
      "outputs": [
        {
          "internalType": "string",
          "name": "",
          "type": "string"
        }
      ],
      "stateMutability": "view",
      "type": "function"
    },
    {
      "inputs": [],
      "name": "totalSupply",
      "outputs": [
        {
          "internalType": "uint256",
          "name": "",
          "type": "uint256"
        }
      ],
      "stateMutability": "view",
      "type": "function"
    },
    {
      "inputs": [
        {
          "internalType": "address",
          "name": "to",
          "type": "address"
        },
        {
          "internalType": "uint256",
          "name": "value",
          "type": "uint256"
        }
      ],
      "name": "transfer",
      "outputs": [
        {
          "internalType": "bool",
          "name": "",
          "type": "bool"
        }
      ],
      "stateMutability": "nonpayable",
      "type": "function"
    },
    {
      "inputs": [
        {
          "internalType": "address",
          "name": "from",
          "type": "address"
        },
        {
          "internalType": "address",
          "name": "to",
          "type": "address"
        },
        {
          "internalType": "uint256",
          "name": "value",
          "type": "uint256"
        }
      ],
      "name": "transferFrom",
      "outputs": [
        {
          "internalType": "bool",
          "name": "",
          "type": "bool"
        }
      ],
      "stateMutability": "nonpayable",
      "type": "function"
    },
    {
      "inputs": [
        {
          "internalType": "address",
          "name": "newOwner",
          "type": "address"
        }
      ],
      "name": "transferOwnership",
      "outputs": [],
      "stateMutability": "nonpayable",
      "type": "function"
    }
  ],
  "bytecode": "0x60806040523480156200001157600080fd5b50336040518060400160405280600b81526020016a2632b0b937102a37b5b2b760a91b815250604051806040016040528060058152602001642622a0a92760d91b815250816003908162000066919062000339565b50600462000075828262000339565b5050506001600160a01b038116620000a857604051631e4fbdf760e01b8152600060048201526024015b60405180910390fd5b620000b381620000d1565b50620000cb336a52b7d2dcc80cd2e400000062000123565b6200042d565b600580546001600160a01b038381166001600160a01b0319831681179093556040519116919082907f8be0079c531659141344cd1fd0a4f28419497f9722a3daafe3b4186f6b6457e090600090a35050565b6001600160a01b0382166200014f5760405163ec442f0560e01b8152600060048201526024016200009f565b6200015d6000838362000161565b5050565b6001600160a01b0383166200019057806002600082825462000184919062000405565b90915550620002049050565b6001600160a01b03831660009081526020819052604090205481811015620001e55760405163391434e360e21b81526001600160a01b038516600482015260248101829052604481018390526064016200009f565b6001600160a01b03841660009081526020819052604090209082900390555b6001600160a01b038216620002225760028054829003905562000241565b6001600160a01b03821660009081526020819052604090208054820190555b816001600160a01b0316836001600160a01b03167fddf252ad1be2c89b69c2b068fc378daa952ba7f163c4a11628f55a4df523b3ef836040516200028791815260200190565b60405180910390a3505050565b634e487b7160e01b600052604160045260246000fd5b600181811c90821680620002bf57607f821691505b602082108103620002e057634e487b7160e01b600052602260045260246000fd5b50919050565b601f8211156200033457600081815260208120601f850160051c810160208610156200030f5750805b601f850160051c820191505b8181101562000330578281556001016200031b565b5050505b505050565b81516001600160401b0381111562000355576200035562000294565b6200036d81620003668454620002aa565b84620002e6565b602080601f831160018114620003a557600084156200038c5750858301515b600019600386901b1c1916600185901b17855562000330565b600085815260208120601f198616915b82811015620003d657888601518255948401946001909101908401620003b5565b5085821015620003f55787850151600019600388901b60f8161c191681555b5050505050600190811b01905550565b808201808211156200042757634e487b7160e01b600052601160045260246000fd5b92915050565b610a95806200043d6000396000f3fe608060405234801561001057600080fd5b506004361061010b5760003560e01c806342966c68116100a257806395d89b411161007157806395d89b411461022d578063a9059cbb14610235578063d01fde4d14610248578063dd62ed3e1461025b578063f2fde38b1461029457600080fd5b806342966c68146101d857806370a08231146101eb578063715018a6146102145780638da5cb5b1461021c57600080fd5b8063313ce567116100de578063313ce5671461017657806332cb6b0c146101855780633d8756611461019857806340c10f19146101c357600080fd5b806306fdde0314610110578063095ea7b31461012e57806318160ddd1461015157806323b872dd14610163575b600080fd5b6101186102a7565b60405161012591906108c6565b60405180910390f35b61014161013c366004610930565b610339565b6040519015158152602001610125565b6002545b604051908152602001610125565b61014161017136600461095a565b610353565b60405160128152602001610125565b6101556b033b2e3c9fd0803ce800000081565b6006546101ab906001600160a01b031681565b6040516001600160a01b039091168152602001610125565b6101d66101d1366004610930565b610377565b005b6101d66101e6366004610996565b610449565b6101556101f93660046109af565b6001600160a01b031660009081526020819052604090205490565b6101d6610456565b6005546001600160a01b03166101ab565b61011861046a565b610141610243366004610930565b610479565b6101d66102563660046109af565b610487565b6101556102693660046109d1565b6001600160a01b03918216600090815260016020908152604080832093909416825291909152205490565b6101d66102a23660046109af565b6104b1565b6060600380546102b690610a04565b80601f01602080910402602001604051908101604052809291908181526020018280546102e290610a04565b801561032f5780601f106103045761010080835404028352916020019161032f565b820191906000526020600020905b81548152906001019060200180831161031257829003601f168201915b5050505050905090565b6000336103478185856104ec565b60019150505b92915050565b6000336103618582856104fe565b61036c85858561057d565b506001949350505050565b6006546001600160a01b031633146103d65760405162461bcd60e51b815260206004820152601a60248201527f4f6e6c79207175697a206d616e616765722063616e206d696e7400000000000060448201526064015b60405180910390fd5b6b033b2e3c9fd0803ce8000000816103ed60025490565b6103f79190610a3e565b111561043b5760405162461bcd60e51b815260206004820152601360248201527213585e081cdd5c1c1b1e48195e18d959591959606a1b60448201526064016103cd565b61044582826105dc565b5050565b6104533382610612565b50565b61045e610648565b6104686000610675565b565b6060600480546102b690610a04565b60003361034781858561057d565b61048f610648565b600680546001600160a01b0319166001600160a01b0392909216919091179055565b6104b9610648565b6001600160a01b0381166104e357604051631e4fbdf760e01b8152600060048201526024016103cd565b61045381610675565b6104f983838360016106c7565b505050565b6001600160a01b03838116600090815260016020908152604080832093861683529290522054600019811015610577578181101561056857604051637dc7a0d960e11b81526001600160a01b038416600482015260248101829052604481018390526064016103cd565b610577848484840360006106c7565b50505050565b6001600160a01b0383166105a757604051634b637e8f60e11b8152600060048201526024016103cd565b6001600160a01b0382166105d15760405163ec442f0560e01b8152600060048201526024016103cd565b6104f983838361079c565b6001600160a01b0382166106065760405163ec442f0560e01b8152600060048201526024016103cd565b6104456000838361079c565b6001600160a01b03821661063c57604051634b637e8f60e11b8152600060048201526024016103cd565b6104458260008361079c565b6005546001600160a01b031633146104685760405163118cdaa760e01b81523360048201526024016103cd565b600580546001600160a01b038381166001600160a01b0319831681179093556040519116919082907f8be0079c531659141344cd1fd0a4f28419497f9722a3daafe3b4186f6b6457e090600090a35050565b6001600160a01b0384166106f15760405163e602df0560e01b8152600060048201526024016103cd565b6001600160a01b03831661071b57604051634a1406b160e11b8152600060048201526024016103cd565b6001600160a01b038085166000908152600160209081526040808320938716835292905220829055801561057757826001600160a01b0316846001600160a01b03167f8c5be1e5ebec7d5bd14f71427d1e84f3dd0314c0f7b2291e5b200ac8c7c3b9258460405161078e91815260200190565b60405180910390a350505050565b6001600160a01b0383166107c75780600260008282546107bc9190610a3e565b909155506108399050565b6001600160a01b0383166000908152602081905260409020548181101561081a5760405163391434e360e21b81526001600160a01b038516600482015260248101829052604481018390526064016103cd565b6001600160a01b03841660009081526020819052604090209082900390555b6001600160a01b03821661085557600280548290039055610874565b6001600160a01b03821660009081526020819052604090208054820190555b816001600160a01b0316836001600160a01b03167fddf252ad1be2c89b69c2b068fc378daa952ba7f163c4a11628f55a4df523b3ef836040516108b991815260200190565b60405180910390a3505050565b600060208083528351808285015260005b818110156108f3578581018301518582016040015282016108d7565b506000604082860101526040601f19601f8301168501019250505092915050565b80356001600160a01b038116811461092b57600080fd5b919050565b6000806040838503121561094357600080fd5b61094c83610914565b946020939093013593505050565b60008060006060848603121561096f57600080fd5b61097884610914565b925061098660208501610914565b9150604084013590509250925092565b6000602082840312156109a857600080fd5b5035919050565b6000602082840312156109c157600080fd5b6109ca82610914565b9392505050565b600080604083850312156109e457600080fd5b6109ed83610914565b91506109fb60208401610914565b90509250929050565b600181811c90821680610a1857607f821691505b602082108103610a3857634e487b7160e01b600052602260045260246000fd5b50919050565b8082018082111561034d57634e487b7160e01b600052601160045260246000fdfea2646970667358221220dc911f6e36877f4d92db820fb9f3a911a0e956cb09442506373cbc9daf86b6f264736f6c63430008140033",
  "linkReferences": {},
  "deployedLinkReferences": {}
}