{
  "_format": "hh-sol-artifact-1",
  "contractName": "BatchQuizManager",
  "sourceName": "contracts/BatchQuizManager.sol",
  "abi": [
    {
      "inputs": [
        {
          "internalType": "address",
          "name": "_learnToken",
          "type": "address"
        },
        {
          "internalType": "address",
          "name": "_leaderboard",
          "type": "address"
        }
      ],
      "stateMutability": "nonpayable",
      "type": "constructor"
    },
    {
      "inputs": [
        {
          "internalType": "address",
          "name": "owner",
          "type": "address"
        }
      ],
      "name": "OwnableInvalidOwner",
      "type": "error"
    },
    {
      "inputs": [
        {
          "internalType": "address",
          "name": "account",
          "type": "address"
        }
      ],
      "name": "OwnableUnauthorizedAccount",
      "type": "error"
    },
    {
      "anonymous": false,
      "inputs": [
        {
          "indexed": true,
          "internalType": "address",
          "name": "previousOwner",
          "type": "address"
        },
        {
          "indexed": true,
          "internalType": "address",
          "name": "newOwner",
          "type": "address"
        }
      ],
      "name": "OwnershipTransferred",
      "type": "event"
    },
    {
      "anonymous": false,
      "inputs": [
        {
          "indexed": true,
          "internalType": "address",
          "name": "user",
          "type": "address"
        },
        {
          "indexed": false,
          "internalType": "bool",
          "name": "allCorrect",
          "type": "bool"
        },
        {
          "indexed": false,
          "internalType": "uint256",
          "name": "reward",
          "type": "uint256"
        }
      ],
      "name": "SessionCompleted",
      "type": "event"
    },
    {
      "anonymous": false,
      "inputs": [
        {
          "indexed": true,
          "internalType": "address",
          "name": "user",
          "type": "address"
        },
        {
          "indexed": false,
          "internalType": "uint256",
          "name": "startTime",
          "type": "uint256"
        }
      ],
      "name": "SessionStarted",
      "type": "event"
    },
    {
      "inputs": [],
      "name": "BATCH_REWARD",
      "outputs": [
        {
          "internalType": "uint256",
          "name": "",
          "type": "uint256"
        }
      ],
      "stateMutability": "view",
      "type": "function"
    },
    {
      "inputs": [],
      "name": "SESSION_DURATION",
      "outputs": [
        {
          "internalType": "uint256",
          "name": "",
          "type": "uint256"
        }
      ],
      "stateMutability": "view",
      "type": "function"
    },
    {
      "inputs": [
        {
          "internalType": "address",
          "name": "",
          "type": "address"
        }
      ],
      "name": "activeSessions",
      "outputs": [
        {
          "internalType": "uint256",
          "name": "totalReward",
          "type": "uint256"
        },
        {
          "internalType": "uint256",
          "name": "startTime",
          "type": "uint256"
        },
        {
          "internalType": "uint256",
          "name": "endTime",
          "type": "uint256"
        },
        {
          "internalType": "bool",
          "name": "completed",
          "type": "bool"
        }
      ],
      "stateMutability": "view",
      "type": "function"
    },
    {
      "inputs": [],
      "name": "leaderboard",
      "outputs": [
        {
          "internalType": "contract Leaderboard",
          "name": "",
          "type": "address"
        }
      ],
      "stateMutability": "view",
      "type": "function"
    },
    {
      "inputs": [],
      "name": "learnToken",
      "outputs": [
        {
          "internalType": "contract LearnToken",
          "name": "",
          "type": "address"
        }
      ],
      "stateMutability": "view",
      "type": "function"
    },
    {
      "inputs": [],
      "name": "owner",
      "outputs": [
        {
          "internalType": "address",
          "name": "",
          "type": "address"
        }
      ],
      "stateMutability": "view",
      "type": "function"
    },
    {
      "inputs": [],
      "name": "renounceOwnership",
      "outputs": [],
      "stateMutability": "nonpayable",
      "type": "function"
    },
    {
      "inputs": [],
      "name": "startQuizSession",
      "outputs": [],
      "stateMutability": "nonpayable",
      "type": "function"
    },
    {
      "inputs": [
        {
          "internalType": "string[10]",
          "name": "userAnswers",
          "type": "string[10]"
        }
      ],
      "name": "submitBatchAnswers",
      "outputs": [],
      "stateMutability": "nonpayable",
      "type": "function"
    },
    {
      "inputs": [
        {
          "internalType": "address",
          "name": "newOwner",
          "type": "address"
        }
      ],
      "name": "transferOwnership",
      "outputs": [],
      "stateMutability": "nonpayable",
      "type": "function"
    },
    {
      "inputs": [
        {
          "internalType": "address",
          "name": "",
          "type": "address"
        }
      ],
      "name": "userTotalScore",
      "outputs": [
        {
          "internalType": "uint256",
          "name": "",
          "type": "uint256"
        }
      ],
      "stateMutability": "view",
      "type": "function"
    }
  ],
  "bytecode": "0x608060405234801561001057600080fd5b50604051610ec4380380610ec483398101604081905261002f916100fc565b338061005557604051631e4fbdf760e01b81526000600482015260240160405180910390fd5b61005e81610090565b50600180546001600160a01b039384166001600160a01b0319918216179091556002805492909316911617905561012f565b600080546001600160a01b038381166001600160a01b0319831681178455604051919092169283917f8be0079c531659141344cd1fd0a4f28419497f9722a3daafe3b4186f6b6457e09190a35050565b80516001600160a01b03811681146100f757600080fd5b919050565b6000806040838503121561010f57600080fd5b610118836100e0565b9150610126602084016100e0565b90509250929050565b610d868061013e6000396000f3fe608060405234801561001057600080fd5b50600436106100a95760003560e01c80638da5cb5b116100715780638da5cb5b14610141578063c7e8204814610166578063d0023fcb14610179578063e620aa8014610199578063eb56b740146101ac578063f2fde38b146101bf57600080fd5b806323ef2936146100ae5780632e35b278146101105780633deaa3411461011a5780635c17de9c14610131578063715018a614610139575b600080fd5b6100e96100bc366004610ae5565b6003602052600090815260409020600a810154600b820154600c830154600d909301549192909160ff1684565b60408051948552602085019390935291830152151560608201526080015b60405180910390f35b6101186101d2565b005b61012361070881565b604051908152602001610107565b610123606481565b6101186104e0565b6000546001600160a01b03165b6040516001600160a01b039091168152602001610107565b60015461014e906001600160a01b031681565b610123610187366004610ae5565b60046020526000908152604090205481565b6101186101a7366004610b86565b6104f4565b60025461014e906001600160a01b031681565b6101186101cd366004610ae5565b610855565b336000908152600360205260409020600d015460ff1615806102055750336000908152600360205260409020600c015442115b6102475760405162461bcd60e51b815260206004820152600e60248201526d53657373696f6e2061637469766560901b60448201526064015b60405180910390fd5b61024f610a73565b60408051620cae8d60eb1b6020808301919091528251600381840381018252602393840185528151918301919091208552835167636f696e6261736560c01b81840152845160088183038101825260289283018752815191850191909120878501528551676f7074696d69736d60c01b8186015286518082038301815290830187528051908501208787015285516279657360e81b818601528651808203909401845290940185528151918301919091206060808701919091528451653630bcb2b91960d11b8185015285516006818303018152602690910186528051908401206080870152845167657468657265756d60c01b8185015285518082039095018552909101845282519282019290922060a0808601919091528351633230323360e01b81840152845160048183030181526024909101855280519083012060c08601528351696f7074696d697374696360b01b818401528451600a818303018152602a909101855280519083012060e08601528351643637bbb2b960d91b818401528451600581830301815260259091018552805190830120610100860152835166626564726f636b60c81b818401528451600781830301815260279091018552805190830120610120860152835190810184528481526064918101919091524292810183905291908201906104489061070890610ca0565b815260006020918201819052338152600390915260409020815161046f908290600a610a92565b50602082810151600a830155604080840151600b8401556060840151600c840155608090930151600d909201805460ff191692151592909217909155905142815233917f6479f44bef3ce31847397612fb476f7f382288003bdebea81c5302f8bd819dd1910160405180910390a250565b6104e8610893565b6104f260006108c0565b565b336000908152600360205260409020600b8101546105485760405162461bcd60e51b815260206004820152601160248201527027379030b1ba34bb329039b2b9b9b4b7b760791b604482015260640161023e565b600d81015460ff161561059d5760405162461bcd60e51b815260206004820152601960248201527f53657373696f6e20616c726561647920636f6d706c6574656400000000000000604482015260640161023e565b80600c01544211156105e35760405162461bcd60e51b815260206004820152600f60248201526e14d95cdcda5bdb88195e1c1a5c9959608a1b604482015260640161023e565b6000805b600a8110156106775760006106118583600a811061060757610607610c74565b6020020151610910565b6040516020016106219190610cb9565b6040516020818303038152906040528051906020012090508360000182600a811061064e5761064e610c74565b01548103610664578261066081610ce8565b9350505b508061066f81610d07565b9150506105e7565b50600d8201805460ff19166001179055600060ff8216600a036107a2576106a76064670de0b6b3a7640000610d20565b6001546040516340c10f1960e01b8152336004820152602481018390529192506001600160a01b0316906340c10f1990604401600060405180830381600087803b1580156106f457600080fd5b505af1158015610708573d6000803e3d6000fd5b505033600090815260046020526040812080546064945090925061072d908490610ca0565b90915550506002546040516350fc0f6d60e11b8152336004820152606460248201819052600160448301526001600160a01b039092169163a1f81eda9101600060405180830381600087803b15801561078557600080fd5b505af1158015610799573d6000803e3d6000fd5b5050505061080e565b6002546040516350fc0f6d60e11b815233600482015260006024820181905260448201526001600160a01b039091169063a1f81eda90606401600060405180830381600087803b1580156107f557600080fd5b505af1158015610809573d6000803e3d6000fd5b505050505b60408051600a60ff85161481526020810183905233917ffe7e8555f5a695b6db7ae0e106fb70d3248015287d533136d18f31dc43670058910160405180910390a250505050565b61085d610893565b6001600160a01b03811661088757604051631e4fbdf760e01b81526000600482015260240161023e565b610890816108c0565b50565b6000546001600160a01b031633146104f25760405163118cdaa760e01b815233600482015260240161023e565b600080546001600160a01b038381166001600160a01b0319831681178455604051919092169283917f8be0079c531659141344cd1fd0a4f28419497f9722a3daafe3b4186f6b6457e09190a35050565b606060008290506000815167ffffffffffffffff81111561093357610933610b15565b6040519080825280601f01601f19166020018201604052801561095d576020820181803683370190505b50905060005b8251811015610a6b57604183828151811061098057610980610c74565b016020015160f81c108015906109b05750605a8382815181106109a5576109a5610c74565b016020015160f81c11155b15610a12578281815181106109c7576109c7610c74565b602001015160f81c60f81b60f81c60206109e19190610d37565b60f81b8282815181106109f6576109f6610c74565b60200101906001600160f81b031916908160001a905350610a59565b828181518110610a2457610a24610c74565b602001015160f81c60f81b828281518110610a4157610a41610c74565b60200101906001600160f81b031916908160001a9053505b80610a6381610d07565b915050610963565b509392505050565b604051806101400160405280600a906020820280368337509192915050565b82600a8101928215610ac0579160200282015b82811115610ac0578251825591602001919060010190610aa5565b50610acc929150610ad0565b5090565b5b80821115610acc5760008155600101610ad1565b600060208284031215610af757600080fd5b81356001600160a01b0381168114610b0e57600080fd5b9392505050565b634e487b7160e01b600052604160045260246000fd5b604051610140810167ffffffffffffffff81118282101715610b4f57610b4f610b15565b60405290565b604051601f8201601f1916810167ffffffffffffffff81118282101715610b7e57610b7e610b15565b604052919050565b60006020808385031215610b9957600080fd5b823567ffffffffffffffff80821115610bb157600080fd5b8185019150601f8681840112610bc657600080fd5b610bce610b2b565b80610140850189811115610be157600080fd5b855b81811015610c6557803586811115610bfb5760008081fd5b87018581018c13610c0c5760008081fd5b803587811115610c1e57610c1e610b15565b610c2f818801601f19168b01610b55565b8181528d8b838501011115610c445760008081fd5b818b84018c83013760009181018b0191909152855250928701928701610be3565b50909998505050505050505050565b634e487b7160e01b600052603260045260246000fd5b634e487b7160e01b600052601160045260246000fd5b80820180821115610cb357610cb3610c8a565b92915050565b6000825160005b81811015610cda5760208186018101518583015201610cc0565b506000920191825250919050565b600060ff821660ff8103610cfe57610cfe610c8a565b60010192915050565b600060018201610d1957610d19610c8a565b5060010190565b8082028115828204841417610cb357610cb3610c8a565b60ff8181168382160190811115610cb357610cb3610c8a56fea26469706673582212205d0c39dbb200ab32b85aeec4671914b81b09b1854cc03dcd02b015993189048464736f6c63430008140033",
  "linkReferences": {},
  "deployedLinkReferences": {}
}