{
  "_format": "hh-sol-artifact-1",
  "contractName": "QuizManager",
  "sourceName": "contracts/QuizManager.sol",
  "abi": [
    {
      "inputs": [
        {
          "internalType": "address",
          "name": "_learnToken",
          "type": "address"
        }
      ],
      "stateMutability": "nonpayable",
      "type": "constructor"
    },
    {
      "inputs": [
        {
          "internalType": "address",
          "name": "owner",
          "type": "address"
        }
      ],
      "name": "OwnableInvalidOwner",
      "type": "error"
    },
    {
      "inputs": [
        {
          "internalType": "address",
          "name": "account",
          "type": "address"
        }
      ],
      "name": "OwnableUnauthorizedAccount",
      "type": "error"
    },
    {
      "anonymous": false,
      "inputs": [
        {
          "indexed": true,
          "internalType": "address",
          "name": "previousOwner",
          "type": "address"
        },
        {
          "indexed": true,
          "internalType": "address",
          "name": "newOwner",
          "type": "address"
        }
      ],
      "name": "OwnershipTransferred",
      "type": "event"
    },
    {
      "anonymous": false,
      "inputs": [
        {
          "indexed": true,
          "internalType": "address",
          "name": "user",
          "type": "address"
        },
        {
          "indexed": true,
          "internalType": "uint256",
          "name": "quizId",
          "type": "uint256"
        },
        {
          "indexed": false,
          "internalType": "bool",
          "name": "correct",
          "type": "bool"
        },
        {
          "indexed": false,
          "internalType": "uint256",
          "name": "reward",
          "type": "uint256"
        }
      ],
      "name": "QuizCompleted",
      "type": "event"
    },
    {
      "anonymous": false,
      "inputs": [
        {
          "indexed": true,
          "internalType": "uint256",
          "name": "quizId",
          "type": "uint256"
        },
        {
          "indexed": true,
          "internalType": "address",
          "name": "creator",
          "type": "address"
        },
        {
          "indexed": false,
          "internalType": "uint256",
          "name": "reward",
          "type": "uint256"
        }
      ],
      "name": "QuizCreated",
      "type": "event"
    },
    {
      "inputs": [
        {
          "internalType": "string",
          "name": "_correctAnswer",
          "type": "string"
        },
        {
          "internalType": "uint256",
          "name": "_reward",
          "type": "uint256"
        },
        {
          "internalType": "string",
          "name": "_category",
          "type": "string"
        },
        {
          "internalType": "uint8",
          "name": "_difficulty",
          "type": "uint8"
        }
      ],
      "name": "createQuiz",
      "outputs": [
        {
          "internalType": "uint256",
          "name": "",
          "type": "uint256"
        }
      ],
      "stateMutability": "nonpayable",
      "type": "function"
    },
    {
      "inputs": [
        {
          "internalType": "address",
          "name": "_user",
          "type": "address"
        }
      ],
      "name": "getUserStats",
      "outputs": [
        {
          "internalType": "uint256",
          "name": "totalScore",
          "type": "uint256"
        },
        {
          "internalType": "uint256",
          "name": "completions",
          "type": "uint256"
        }
      ],
      "stateMutability": "view",
      "type": "function"
    },
    {
      "inputs": [
        {
          "internalType": "address",
          "name": "",
          "type": "address"
        },
        {
          "internalType": "uint256",
          "name": "",
          "type": "uint256"
        }
      ],
      "name": "hasCompleted",
      "outputs": [
        {
          "internalType": "bool",
          "name": "",
          "type": "bool"
        }
      ],
      "stateMutability": "view",
      "type": "function"
    },
    {
      "inputs": [],
      "name": "learnToken",
      "outputs": [
        {
          "internalType": "contract LearnToken",
          "name": "",
          "type": "address"
        }
      ],
      "stateMutability": "view",
      "type": "function"
    },
    {
      "inputs": [],
      "name": "nextQuizId",
      "outputs": [
        {
          "internalType": "uint256",
          "name": "",
          "type": "uint256"
        }
      ],
      "stateMutability": "view",
      "type": "function"
    },
    {
      "inputs": [],
      "name": "owner",
      "outputs": [
        {
          "internalType": "address",
          "name": "",
          "type": "address"
        }
      ],
      "stateMutability": "view",
      "type": "function"
    },
    {
      "inputs": [
        {
          "internalType": "uint256",
          "name": "",
          "type": "uint256"
        }
      ],
      "name": "quizzes",
      "outputs": [
        {
          "internalType": "address",
          "name": "creator",
          "type": "address"
        },
        {
          "internalType": "bytes32",
          "name": "answerHash",
          "type": "bytes32"
        },
        {
          "internalType": "uint256",
          "name": "reward",
          "type": "uint256"
        },
        {
          "internalType": "string",
          "name": "category",
          "type": "string"
        },
        {
          "internalType": "uint8",
          "name": "difficulty",
          "type": "uint8"
        },
        {
          "internalType": "uint256",
          "name": "completions",
          "type": "uint256"
        },
        {
          "internalType": "bool",
          "name": "active",
          "type": "bool"
        }
      ],
      "stateMutability": "view",
      "type": "function"
    },
    {
      "inputs": [],
      "name": "renounceOwnership",
      "outputs": [],
      "stateMutability": "nonpayable",
      "type": "function"
    },
    {
      "inputs": [
        {
          "internalType": "uint256",
          "name": "_quizId",
          "type": "uint256"
        },
        {
          "internalType": "string",
          "name": "_answer",
          "type": "string"
        }
      ],
      "name": "submitAnswer",
      "outputs": [],
      "stateMutability": "nonpayable",
      "type": "function"
    },
    {
      "inputs": [
        {
          "internalType": "address",
          "name": "newOwner",
          "type": "address"
        }
      ],
      "name": "transferOwnership",
      "outputs": [],
      "stateMutability": "nonpayable",
      "type": "function"
    },
    {
      "inputs": [
        {
          "internalType": "address",
          "name": "",
          "type": "address"
        }
      ],
      "name": "userCompletions",
      "outputs": [
        {
          "internalType": "uint256",
          "name": "",
          "type": "uint256"
        }
      ],
      "stateMutability": "view",
      "type": "function"
    },
    {
      "inputs": [
        {
          "internalType": "address",
          "name": "",
          "type": "address"
        }
      ],
      "name": "userScores",
      "outputs": [
        {
          "internalType": "uint256",
          "name": "",
          "type": "uint256"
        }
      ],
      "stateMutability": "view",
      "type": "function"
    }
  ],
  "bytecode": "0x6080604052600160065534801561001557600080fd5b50604051610f55380380610f55833981016040819052610034916100d9565b338061005a57604051631e4fbdf760e01b81526000600482015260240160405180910390fd5b61006381610089565b50600180546001600160a01b0319166001600160a01b0392909216919091179055610109565b600080546001600160a01b038381166001600160a01b0319831681178455604051919092169283917f8be0079c531659141344cd1fd0a4f28419497f9722a3daafe3b4186f6b6457e09190a35050565b6000602082840312156100eb57600080fd5b81516001600160a01b038116811461010257600080fd5b9392505050565b610e3d806101186000396000f3fe608060405234801561001057600080fd5b50600436106100b45760003560e01c806388409afa1161007157806388409afa146101a55780638da5cb5b146101cb57806394200206146101f0578063c7e8204814610210578063e503f10814610223578063f2fde38b1461022c57600080fd5b806301fa3bec146100b95780630b97e0ba146100ce5780631413d4c0146100f45780632e246786146101145780634e43603a14610152578063715018a61461019d575b600080fd5b6100cc6100c7366004610a38565b61023f565b005b6100e16100dc366004610a7f565b6104d8565b6040519081526020015b60405180910390f35b6100e1610102366004610b21565b60046020526000908152604090205481565b610142610122366004610b43565b600360209081526000928352604080842090915290825290205460ff1681565b60405190151581526020016100eb565b610188610160366004610b21565b6001600160a01b03166000908152600460209081526040808320546005909252909120549091565b604080519283526020830191909152016100eb565b6100cc61068d565b6101b86101b3366004610b6d565b6106a1565b6040516100eb9796959493929190610baa565b6000546001600160a01b03165b6040516001600160a01b0390911681526020016100eb565b6100e16101fe366004610b21565b60056020526000908152604090205481565b6001546101d8906001600160a01b031681565b6100e160065481565b6100cc61023a366004610b21565b610777565b6000828152600260205260409020600681015460ff166102985760405162461bcd60e51b815260206004820152600f60248201526e5175697a206e6f742061637469766560881b60448201526064015b60405180910390fd5b33600090815260036020908152604080832086845290915290205460ff16156102f75760405162461bcd60e51b8152602060048201526011602482015270105b1c9958591e4818dbdb5c1b195d1959607a1b604482015260640161028f565b6000610302836107b5565b6040516020016103129190610c14565b60405160208183030381529060405280519060200120905060008260010154821490508015610493573360009081526003602090815260408083208884529091528120805460ff191660011790556005840180549161037083610c46565b909155505060028301543360009081526004602052604081208054909190610399908490610c5f565b90915550503360009081526005602052604081208054916103b983610c46565b909155505060015460028401546001600160a01b03909116906340c10f199033906103ec90670de0b6b3a7640000610c78565b6040516001600160e01b031960e085901b1681526001600160a01b0390921660048301526024820152604401600060405180830381600087803b15801561043257600080fd5b505af1158015610446573d6000803e3d6000fd5b50505060028401546040805160018152602081019290925287925033917f57eb53b9b5ae4706494725b8f3b3e7e772a2e2bfea922baef5b0ed632499f0cb910160405180910390a36104d1565b6040805160008082526020820152869133917f57eb53b9b5ae4706494725b8f3b3e7e772a2e2bfea922baef5b0ed632499f0cb910160405180910390a35b5050505050565b600060018260ff16101580156104f2575060058260ff1611155b6105335760405162461bcd60e51b8152602060048201526012602482015271496e76616c696420646966666963756c747960701b604482015260640161028f565b600061053e866107b5565b60405160200161054e9190610c14565b60405160208183030381529060405280519060200120905060006006600081548092919061057b90610c46565b909155506040805160e08101825233815260208082018681528284018b8152606084018b815260ff8b166080860152600060a08601819052600160c08701819052888252600295869052969020855181546001600160a01b0319166001600160a01b039091161781559251958301959095555191810191909155915192935091600382019061060a9082610d18565b50608082015160048201805460ff90921660ff1992831617905560a0830151600583015560c0909201516006909101805491151591909216179055604051339082907f3899dc0cc974de7c5bd5ff45838537d2c0ca4dd5afb8094c22f920cdfa47f8a99061067b908a815260200190565b60405180910390a39695505050505050565b610695610918565b61069f6000610945565b565b600260208190526000918252604090912080546001820154928201546003830180546001600160a01b03909316949391926106db90610c8f565b80601f016020809104026020016040519081016040528092919081815260200182805461070790610c8f565b80156107545780601f1061072957610100808354040283529160200191610754565b820191906000526020600020905b81548152906001019060200180831161073757829003601f168201915b5050505060048301546005840154600690940154929360ff918216939092501687565b61077f610918565b6001600160a01b0381166107a957604051631e4fbdf760e01b81526000600482015260240161028f565b6107b281610945565b50565b606060008290506000815167ffffffffffffffff8111156107d8576107d8610995565b6040519080825280601f01601f191660200182016040528015610802576020820181803683370190505b50905060005b825181101561091057604183828151811061082557610825610dd8565b016020015160f81c108015906108555750605a83828151811061084a5761084a610dd8565b016020015160f81c11155b156108b75782818151811061086c5761086c610dd8565b602001015160f81c60f81b60f81c60206108869190610dee565b60f81b82828151811061089b5761089b610dd8565b60200101906001600160f81b031916908160001a9053506108fe565b8281815181106108c9576108c9610dd8565b602001015160f81c60f81b8282815181106108e6576108e6610dd8565b60200101906001600160f81b031916908160001a9053505b8061090881610c46565b915050610808565b509392505050565b6000546001600160a01b0316331461069f5760405163118cdaa760e01b815233600482015260240161028f565b600080546001600160a01b038381166001600160a01b0319831681178455604051919092169283917f8be0079c531659141344cd1fd0a4f28419497f9722a3daafe3b4186f6b6457e09190a35050565b634e487b7160e01b600052604160045260246000fd5b600082601f8301126109bc57600080fd5b813567ffffffffffffffff808211156109d7576109d7610995565b604051601f8301601f19908116603f011681019082821181831017156109ff576109ff610995565b81604052838152866020858801011115610a1857600080fd5b836020870160208301376000602085830101528094505050505092915050565b60008060408385031215610a4b57600080fd5b82359150602083013567ffffffffffffffff811115610a6957600080fd5b610a75858286016109ab565b9150509250929050565b60008060008060808587031215610a9557600080fd5b843567ffffffffffffffff80821115610aad57600080fd5b610ab9888389016109ab565b9550602087013594506040870135915080821115610ad657600080fd5b50610ae3878288016109ab565b925050606085013560ff81168114610afa57600080fd5b939692955090935050565b80356001600160a01b0381168114610b1c57600080fd5b919050565b600060208284031215610b3357600080fd5b610b3c82610b05565b9392505050565b60008060408385031215610b5657600080fd5b610b5f83610b05565b946020939093013593505050565b600060208284031215610b7f57600080fd5b5035919050565b60005b83811015610ba1578181015183820152602001610b89565b50506000910152565b60018060a01b038816815286602082015285604082015260e06060820152600085518060e0840152610100610be58282860160208b01610b86565b60ff96909616608084015260a08301949094525090151560c0820152601f909101601f19160101949350505050565b60008251610c26818460208701610b86565b9190910192915050565b634e487b7160e01b600052601160045260246000fd5b600060018201610c5857610c58610c30565b5060010190565b80820180821115610c7257610c72610c30565b92915050565b8082028115828204841417610c7257610c72610c30565b600181811c90821680610ca357607f821691505b602082108103610cc357634e487b7160e01b600052602260045260246000fd5b50919050565b601f821115610d1357600081815260208120601f850160051c81016020861015610cf05750805b601f850160051c820191505b81811015610d0f57828155600101610cfc565b5050505b505050565b815167ffffffffffffffff811115610d3257610d32610995565b610d4681610d408454610c8f565b84610cc9565b602080601f831160018114610d7b5760008415610d635750858301515b600019600386901b1c1916600185901b178555610d0f565b600085815260208120601f198616915b82811015610daa57888601518255948401946001909101908401610d8b565b5085821015610dc85787850151600019600388901b60f8161c191681555b5050505050600190811b01905550565b634e487b7160e01b600052603260045260246000fd5b60ff8181168382160190811115610c7257610c72610c3056fea264697066735822122053047c4ed44474354a18faac71882f97c0e32c8c907468ecbdb33d1a8bedeb6564736f6c63430008140033",
  "linkReferences": {},
  "deployedLinkReferences": {}
}