{
  "_format": "hh-sol-artifact-1",
  "contractName": "QuizManagerV2",
  "sourceName": "contracts/QuizManagerV2.sol",
  "abi": [
    {
      "inputs": [
        {
          "internalType": "address",
          "name": "_learnToken",
          "type": "address"
        },
        {
          "internalType": "address",
          "name": "_leaderboard",
          "type": "address"
        }
      ],
      "stateMutability": "nonpayable",
      "type": "constructor"
    },
    {
      "inputs": [
        {
          "internalType": "address",
          "name": "owner",
          "type": "address"
        }
      ],
      "name": "OwnableInvalidOwner",
      "type": "error"
    },
    {
      "inputs": [
        {
          "internalType": "address",
          "name": "account",
          "type": "address"
        }
      ],
      "name": "OwnableUnauthorizedAccount",
      "type": "error"
    },
    {
      "anonymous": false,
      "inputs": [
        {
          "indexed": true,
          "internalType": "address",
          "name": "previousOwner",
          "type": "address"
        },
        {
          "indexed": true,
          "internalType": "address",
          "name": "newOwner",
          "type": "address"
        }
      ],
      "name": "OwnershipTransferred",
      "type": "event"
    },
    {
      "anonymous": false,
      "inputs": [
        {
          "indexed": true,
          "internalType": "address",
          "name": "user",
          "type": "address"
        },
        {
          "indexed": true,
          "internalType": "uint256",
          "name": "quizId",
          "type": "uint256"
        },
        {
          "indexed": false,
          "internalType": "bool",
          "name": "correct",
          "type": "bool"
        },
        {
          "indexed": false,
          "internalType": "uint256",
          "name": "reward",
          "type": "uint256"
        }
      ],
      "name": "QuizCompleted",
      "type": "event"
    },
    {
      "anonymous": false,
      "inputs": [
        {
          "indexed": true,
          "internalType": "uint256",
          "name": "quizId",
          "type": "uint256"
        },
        {
          "indexed": true,
          "internalType": "address",
          "name": "creator",
          "type": "address"
        },
        {
          "indexed": false,
          "internalType": "uint256",
          "name": "reward",
          "type": "uint256"
        }
      ],
      "name": "QuizCreated",
      "type": "event"
    },
    {
      "inputs": [
        {
          "internalType": "string",
          "name": "_correctAnswer",
          "type": "string"
        },
        {
          "internalType": "uint256",
          "name": "_reward",
          "type": "uint256"
        },
        {
          "internalType": "string",
          "name": "_category",
          "type": "string"
        },
        {
          "internalType": "uint8",
          "name": "_difficulty",
          "type": "uint8"
        }
      ],
      "name": "createQuiz",
      "outputs": [
        {
          "internalType": "uint256",
          "name": "",
          "type": "uint256"
        }
      ],
      "stateMutability": "nonpayable",
      "type": "function"
    },
    {
      "inputs": [
        {
          "internalType": "address",
          "name": "",
          "type": "address"
        },
        {
          "internalType": "uint256",
          "name": "",
          "type": "uint256"
        }
      ],
      "name": "hasCompleted",
      "outputs": [
        {
          "internalType": "bool",
          "name": "",
          "type": "bool"
        }
      ],
      "stateMutability": "view",
      "type": "function"
    },
    {
      "inputs": [],
      "name": "leaderboard",
      "outputs": [
        {
          "internalType": "contract Leaderboard",
          "name": "",
          "type": "address"
        }
      ],
      "stateMutability": "view",
      "type": "function"
    },
    {
      "inputs": [],
      "name": "learnToken",
      "outputs": [
        {
          "internalType": "contract LearnToken",
          "name": "",
          "type": "address"
        }
      ],
      "stateMutability": "view",
      "type": "function"
    },
    {
      "inputs": [],
      "name": "nextQuizId",
      "outputs": [
        {
          "internalType": "uint256",
          "name": "",
          "type": "uint256"
        }
      ],
      "stateMutability": "view",
      "type": "function"
    },
    {
      "inputs": [],
      "name": "owner",
      "outputs": [
        {
          "internalType": "address",
          "name": "",
          "type": "address"
        }
      ],
      "stateMutability": "view",
      "type": "function"
    },
    {
      "inputs": [
        {
          "internalType": "uint256",
          "name": "",
          "type": "uint256"
        }
      ],
      "name": "quizzes",
      "outputs": [
        {
          "internalType": "address",
          "name": "creator",
          "type": "address"
        },
        {
          "internalType": "bytes32",
          "name": "answerHash",
          "type": "bytes32"
        },
        {
          "internalType": "uint256",
          "name": "reward",
          "type": "uint256"
        },
        {
          "internalType": "string",
          "name": "category",
          "type": "string"
        },
        {
          "internalType": "uint8",
          "name": "difficulty",
          "type": "uint8"
        },
        {
          "internalType": "uint256",
          "name": "completions",
          "type": "uint256"
        },
        {
          "internalType": "bool",
          "name": "active",
          "type": "bool"
        }
      ],
      "stateMutability": "view",
      "type": "function"
    },
    {
      "inputs": [],
      "name": "renounceOwnership",
      "outputs": [],
      "stateMutability": "nonpayable",
      "type": "function"
    },
    {
      "inputs": [
        {
          "internalType": "address",
          "name": "_leaderboard",
          "type": "address"
        }
      ],
      "name": "setLeaderboard",
      "outputs": [],
      "stateMutability": "nonpayable",
      "type": "function"
    },
    {
      "inputs": [
        {
          "internalType": "uint256",
          "name": "_quizId",
          "type": "uint256"
        },
        {
          "internalType": "string",
          "name": "_answer",
          "type": "string"
        }
      ],
      "name": "submitAnswer",
      "outputs": [],
      "stateMutability": "nonpayable",
      "type": "function"
    },
    {
      "inputs": [
        {
          "internalType": "address",
          "name": "newOwner",
          "type": "address"
        }
      ],
      "name": "transferOwnership",
      "outputs": [],
      "stateMutability": "nonpayable",
      "type": "function"
    },
    {
      "inputs": [
        {
          "internalType": "address",
          "name": "",
          "type": "address"
        }
      ],
      "name": "userCompletions",
      "outputs": [
        {
          "internalType": "uint256",
          "name": "",
          "type": "uint256"
        }
      ],
      "stateMutability": "view",
      "type": "function"
    },
    {
      "inputs": [
        {
          "internalType": "address",
          "name": "",
          "type": "address"
        }
      ],
      "name": "userScores",
      "outputs": [
        {
          "internalType": "uint256",
          "name": "",
          "type": "uint256"
        }
      ],
      "stateMutability": "view",
      "type": "function"
    }
  ],
  "bytecode": "0x6080604052600160075534801561001557600080fd5b5060405161107b38038061107b83398101604081905261003491610101565b338061005a57604051631e4fbdf760e01b81526000600482015260240160405180910390fd5b61006381610095565b50600180546001600160a01b039384166001600160a01b03199182161790915560028054929093169116179055610134565b600080546001600160a01b038381166001600160a01b0319831681178455604051919092169283917f8be0079c531659141344cd1fd0a4f28419497f9722a3daafe3b4186f6b6457e09190a35050565b80516001600160a01b03811681146100fc57600080fd5b919050565b6000806040838503121561011457600080fd5b61011d836100e5565b915061012b602084016100e5565b90509250929050565b610f38806101436000396000f3fe608060405234801561001057600080fd5b50600436106100cf5760003560e01c80638da5cb5b1161008c578063e503f10811610066578063e503f108146101f3578063eb56b740146101fc578063f1a2de721461020f578063f2fde38b1461022257600080fd5b80638da5cb5b1461019b57806394200206146101c0578063c7e82048146101e057600080fd5b806301fa3bec146100d45780630b97e0ba146100e95780631413d4c01461010f5780632e2467861461012f578063715018a61461016d57806388409afa14610175575b600080fd5b6100e76100e2366004610b33565b610235565b005b6100fc6100f7366004610b7a565b6105aa565b6040519081526020015b60405180910390f35b6100fc61011d366004610c1c565b60056020526000908152604090205481565b61015d61013d366004610c3e565b600460209081526000928352604080842090915290825290205460ff1681565b6040519015158152602001610106565b6100e761075d565b610188610183366004610c68565b610771565b6040516101069796959493929190610ca5565b6000546001600160a01b03165b6040516001600160a01b039091168152602001610106565b6100fc6101ce366004610c1c565b60066020526000908152604090205481565b6001546101a8906001600160a01b031681565b6100fc60075481565b6002546101a8906001600160a01b031681565b6100e761021d366004610c1c565b610848565b6100e7610230366004610c1c565b610872565b6000828152600360205260409020600681015460ff1661028e5760405162461bcd60e51b815260206004820152600f60248201526e5175697a206e6f742061637469766560881b60448201526064015b60405180910390fd5b33600090815260046020908152604080832086845290915290205460ff16156102ed5760405162461bcd60e51b8152602060048201526011602482015270105b1c9958591e4818dbdb5c1b195d1959607a1b6044820152606401610285565b60006102f8836108b0565b6040516020016103089190610d0f565b60408051601f198184030181529181528151602092830120600180860154336000908152600486528481208a825290955292909320805460ff1916909317909255909150811480156104fa5760058301805490600061036683610d41565b90915550506002830154336000908152600560205260408120805490919061038f908490610d5a565b90915550503360009081526006602052604081208054916103af83610d41565b909155505060015460028401546001600160a01b03909116906340c10f199033906103e290670de0b6b3a7640000610d73565b6040516001600160e01b031960e085901b1681526001600160a01b0390921660048301526024820152604401600060405180830381600087803b15801561042857600080fd5b505af115801561043c573d6000803e3d6000fd5b505060028054908601546040516350fc0f6d60e11b81523360048201526024810191909152600160448201526001600160a01b03909116925063a1f81eda9150606401600060405180830381600087803b15801561049957600080fd5b505af11580156104ad573d6000803e3d6000fd5b50505060028401546040805160018152602081019290925287925033917f57eb53b9b5ae4706494725b8f3b3e7e772a2e2bfea922baef5b0ed632499f0cb910160405180910390a36105a3565b6002546040516350fc0f6d60e11b815233600482015260006024820181905260448201526001600160a01b039091169063a1f81eda90606401600060405180830381600087803b15801561054d57600080fd5b505af1158015610561573d6000803e3d6000fd5b505060408051600080825260208201528893503392507f57eb53b9b5ae4706494725b8f3b3e7e772a2e2bfea922baef5b0ed632499f0cb910160405180910390a35b5050505050565b600060018260ff16101580156105c4575060058260ff1611155b6106055760405162461bcd60e51b8152602060048201526012602482015271496e76616c696420646966666963756c747960701b6044820152606401610285565b6000610610866108b0565b6040516020016106209190610d0f565b60405160208183030381529060405280519060200120905060006007600081548092919061064d90610d41565b909155506040805160e08101825233815260208082018681528284018b8152606084018b815260ff8b166080860152600060a08601819052600160c08701819052888252600395869052969020855181546001600160a01b0319166001600160a01b0390911617815592519583019590955551600282015592519394509092908201906106da9082610e13565b50608082015160048201805460ff90921660ff1992831617905560a0830151600583015560c0909201516006909101805491151591909216179055604051339082907f3899dc0cc974de7c5bd5ff45838537d2c0ca4dd5afb8094c22f920cdfa47f8a99061074b908a815260200190565b60405180910390a39695505050505050565b610765610a13565b61076f6000610a40565b565b600360208190526000918252604090912080546001820154600283015493830180546001600160a01b0390931694919391926107ac90610d8a565b80601f01602080910402602001604051908101604052809291908181526020018280546107d890610d8a565b80156108255780601f106107fa57610100808354040283529160200191610825565b820191906000526020600020905b81548152906001019060200180831161080857829003601f168201915b5050505060048301546005840154600690940154929360ff918216939092501687565b610850610a13565b600280546001600160a01b0319166001600160a01b0392909216919091179055565b61087a610a13565b6001600160a01b0381166108a457604051631e4fbdf760e01b815260006004820152602401610285565b6108ad81610a40565b50565b606060008290506000815167ffffffffffffffff8111156108d3576108d3610a90565b6040519080825280601f01601f1916602001820160405280156108fd576020820181803683370190505b50905060005b8251811015610a0b57604183828151811061092057610920610ed3565b016020015160f81c108015906109505750605a83828151811061094557610945610ed3565b016020015160f81c11155b156109b25782818151811061096757610967610ed3565b602001015160f81c60f81b60f81c60206109819190610ee9565b60f81b82828151811061099657610996610ed3565b60200101906001600160f81b031916908160001a9053506109f9565b8281815181106109c4576109c4610ed3565b602001015160f81c60f81b8282815181106109e1576109e1610ed3565b60200101906001600160f81b031916908160001a9053505b80610a0381610d41565b915050610903565b509392505050565b6000546001600160a01b0316331461076f5760405163118cdaa760e01b8152336004820152602401610285565b600080546001600160a01b038381166001600160a01b0319831681178455604051919092169283917f8be0079c531659141344cd1fd0a4f28419497f9722a3daafe3b4186f6b6457e09190a35050565b634e487b7160e01b600052604160045260246000fd5b600082601f830112610ab757600080fd5b813567ffffffffffffffff80821115610ad257610ad2610a90565b604051601f8301601f19908116603f01168101908282118183101715610afa57610afa610a90565b81604052838152866020858801011115610b1357600080fd5b836020870160208301376000602085830101528094505050505092915050565b60008060408385031215610b4657600080fd5b82359150602083013567ffffffffffffffff811115610b6457600080fd5b610b7085828601610aa6565b9150509250929050565b60008060008060808587031215610b9057600080fd5b843567ffffffffffffffff80821115610ba857600080fd5b610bb488838901610aa6565b9550602087013594506040870135915080821115610bd157600080fd5b50610bde87828801610aa6565b925050606085013560ff81168114610bf557600080fd5b939692955090935050565b80356001600160a01b0381168114610c1757600080fd5b919050565b600060208284031215610c2e57600080fd5b610c3782610c00565b9392505050565b60008060408385031215610c5157600080fd5b610c5a83610c00565b946020939093013593505050565b600060208284031215610c7a57600080fd5b5035919050565b60005b83811015610c9c578181015183820152602001610c84565b50506000910152565b60018060a01b038816815286602082015285604082015260e06060820152600085518060e0840152610100610ce08282860160208b01610c81565b60ff96909616608084015260a08301949094525090151560c0820152601f909101601f19160101949350505050565b60008251610d21818460208701610c81565b9190910192915050565b634e487b7160e01b600052601160045260246000fd5b600060018201610d5357610d53610d2b565b5060010190565b80820180821115610d6d57610d6d610d2b565b92915050565b8082028115828204841417610d6d57610d6d610d2b565b600181811c90821680610d9e57607f821691505b602082108103610dbe57634e487b7160e01b600052602260045260246000fd5b50919050565b601f821115610e0e57600081815260208120601f850160051c81016020861015610deb5750805b601f850160051c820191505b81811015610e0a57828155600101610df7565b5050505b505050565b815167ffffffffffffffff811115610e2d57610e2d610a90565b610e4181610e3b8454610d8a565b84610dc4565b602080601f831160018114610e765760008415610e5e5750858301515b600019600386901b1c1916600185901b178555610e0a565b600085815260208120601f198616915b82811015610ea557888601518255948401946001909101908401610e86565b5085821015610ec35787850151600019600388901b60f8161c191681555b5050505050600190811b01905550565b634e487b7160e01b600052603260045260246000fd5b60ff8181168382160190811115610d6d57610d6d610d2b56fea264697066735822122011ef1bee38c90d01463a17c0110c9ab2e8e99bc0f935bfe4c5313fe40231feef64736f6c63430008140033",
  "linkReferences": {},
  "deployedLinkReferences": {}
}