{"contracts/QuizManager.sol":{"QuizManager":{"abi":[{"inputs":[{"internalType":"address","name":"_learnToken","type":"address"}],"stateMutability":"nonpayable","type":"constructor"},{"inputs":[{"internalType":"address","name":"owner","type":"address"}],"name":"OwnableInvalidOwner","type":"error"},{"inputs":[{"internalType":"address","name":"account","type":"address"}],"name":"OwnableUnauthorizedAccount","type":"error"},{"anonymous":false,"inputs":[{"indexed":true,"internalType":"address","name":"previousOwner","type":"address"},{"indexed":true,"internalType":"address","name":"newOwner","type":"address"}],"name":"OwnershipTransferred","type":"event"},{"anonymous":false,"inputs":[{"indexed":true,"internalType":"address","name":"user","type":"address"},{"indexed":true,"internalType":"uint256","name":"quizId","type":"uint256"},{"indexed":false,"internalType":"bool","name":"correct","type":"bool"},{"indexed":false,"internalType":"uint256","name":"reward","type":"uint256"}],"name":"QuizCompleted","type":"event"},{"anonymous":false,"inputs":[{"indexed":true,"internalType":"uint256","name":"quizId","type":"uint256"},{"indexed":true,"internalType":"address","name":"creator","type":"address"},{"indexed":false,"internalType":"uint256","name":"reward","type":"uint256"}],"name":"QuizCreated","type":"event"},{"inputs":[{"internalType":"string","name":"_correctAnswer","type":"string"},{"internalType":"uint256","name":"_reward","type":"uint256"},{"internalType":"string","name":"_category","type":"string"},{"internalType":"uint8","name":"_difficulty","type":"uint8"}],"name":"createQuiz","outputs":[{"internalType":"uint256","name":"","type":"uint256"}],"stateMutability":"nonpayable","type":"function"},{"inputs":[{"internalType":"address","name":"_user","type":"address"}],"name":"getUserStats","outputs":[{"internalType":"uint256","name":"totalScore","type":"uint256"},{"internalType":"uint256","name":"completions","type":"uint256"}],"stateMutability":"view","type":"function"},{"inputs":[{"internalType":"address","name":"","type":"address"},{"internalType":"uint256","name":"","type":"uint256"}],"name":"hasCompleted","outputs":[{"internalType":"bool","name":"","type":"bool"}],"stateMutability":"view","type":"function"},{"inputs":[],"name":"learnToken","outputs":[{"internalType":"contract LearnToken","name":"","type":"address"}],"stateMutability":"view","type":"function"},{"inputs":[],"name":"nextQuizId","outputs":[{"internalType":"uint256","name":"","type":"uint256"}],"stateMutability":"view","type":"function"},{"inputs":[],"name":"owner","outputs":[{"internalType":"address","name":"","type":"address"}],"stateMutability":"view","type":"function"},{"inputs":[{"internalType":"uint256","name":"","type":"uint256"}],"name":"quizzes","outputs":[{"internalType":"address","name":"creator","type":"address"},{"internalType":"bytes32","name":"answerHash","type":"bytes32"},{"internalType":"uint256","name":"reward","type":"uint256"},{"internalType":"string","name":"category","type":"string"},{"internalType":"uint8","name":"difficulty","type":"uint8"},{"internalType":"uint256","name":"completions","type":"uint256"},{"internalType":"bool","name":"active","type":"bool"}],"stateMutability":"view","type":"function"},{"inputs":[],"name":"renounceOwnership","outputs":[],"stateMutability":"nonpayable","type":"function"},{"inputs":[{"internalType":"uint256","name":"_quizId","type":"uint256"},{"internalType":"string","name":"_answer","type":"string"}],"name":"submitAnswer","outputs":[],"stateMutability":"nonpayable","type":"function"},{"inputs":[{"internalType":"address","name":"newOwner","type":"address"}],"name":"transferOwnership","outputs":[],"stateMutability":"nonpayable","type":"function"},{"inputs":[{"internalType":"address","name":"","type":"address"}],"name":"userCompletions","outputs":[{"internalType":"uint256","name":"","type":"uint256"}],"stateMutability":"view","type":"function"},{"inputs":[{"internalType":"address","name":"","type":"address"}],"name":"userScores","outputs":[{"internalType":"uint256","name":"","type":"uint256"}],"stateMutability":"view","type":"function"}],"evm":{"bytecode":{"linkReferences":{},"object":"6080604052600160065534801561001557600080fd5b50604051610f55380380610f55833981016040819052610034916100d9565b338061005a57604051631e4fbdf760e01b81526000600482015260240160405180910390fd5b61006381610089565b50600180546001600160a01b0319166001600160a01b0392909216919091179055610109565b600080546001600160a01b038381166001600160a01b0319831681178455604051919092169283917f8be0079c531659141344cd1fd0a4f28419497f9722a3daafe3b4186f6b6457e09190a35050565b6000602082840312156100eb57600080fd5b81516001600160a01b038116811461010257600080fd5b9392505050565b610e3d806101186000396000f3fe608060405234801561001057600080fd5b50600436106100b45760003560e01c806388409afa1161007157806388409afa146101a55780638da5cb5b146101cb57806394200206146101f0578063c7e8204814610210578063e503f10814610223578063f2fde38b1461022c57600080fd5b806301fa3bec146100b95780630b97e0ba146100ce5780631413d4c0146100f45780632e246786146101145780634e43603a14610152578063715018a61461019d575b600080fd5b6100cc6100c7366004610a38565b61023f565b005b6100e16100dc366004610a7f565b6104d8565b6040519081526020015b60405180910390f35b6100e1610102366004610b21565b60046020526000908152604090205481565b610142610122366004610b43565b600360209081526000928352604080842090915290825290205460ff1681565b60405190151581526020016100eb565b610188610160366004610b21565b6001600160a01b03166000908152600460209081526040808320546005909252909120549091565b604080519283526020830191909152016100eb565b6100cc61068d565b6101b86101b3366004610b6d565b6106a1565b6040516100eb9796959493929190610baa565b6000546001600160a01b03165b6040516001600160a01b0390911681526020016100eb565b6100e16101fe366004610b21565b60056020526000908152604090205481565b6001546101d8906001600160a01b031681565b6100e160065481565b6100cc61023a366004610b21565b610777565b6000828152600260205260409020600681015460ff166102985760405162461bcd60e51b815260206004820152600f60248201526e5175697a206e6f742061637469766560881b60448201526064015b60405180910390fd5b33600090815260036020908152604080832086845290915290205460ff16156102f75760405162461bcd60e51b8152602060048201526011602482015270105b1c9958591e4818dbdb5c1b195d1959607a1b604482015260640161028f565b6000610302836107b5565b6040516020016103129190610c14565b60405160208183030381529060405280519060200120905060008260010154821490508015610493573360009081526003602090815260408083208884529091528120805460ff191660011790556005840180549161037083610c46565b909155505060028301543360009081526004602052604081208054909190610399908490610c5f565b90915550503360009081526005602052604081208054916103b983610c46565b909155505060015460028401546001600160a01b03909116906340c10f199033906103ec90670de0b6b3a7640000610c78565b6040516001600160e01b031960e085901b1681526001600160a01b0390921660048301526024820152604401600060405180830381600087803b15801561043257600080fd5b505af1158015610446573d6000803e3d6000fd5b50505060028401546040805160018152602081019290925287925033917f57eb53b9b5ae4706494725b8f3b3e7e772a2e2bfea922baef5b0ed632499f0cb910160405180910390a36104d1565b6040805160008082526020820152869133917f57eb53b9b5ae4706494725b8f3b3e7e772a2e2bfea922baef5b0ed632499f0cb910160405180910390a35b5050505050565b600060018260ff16101580156104f2575060058260ff1611155b6105335760405162461bcd60e51b8152602060048201526012602482015271496e76616c696420646966666963756c747960701b604482015260640161028f565b600061053e866107b5565b60405160200161054e9190610c14565b60405160208183030381529060405280519060200120905060006006600081548092919061057b90610c46565b909155506040805160e08101825233815260208082018681528284018b8152606084018b815260ff8b166080860152600060a08601819052600160c08701819052888252600295869052969020855181546001600160a01b0319166001600160a01b039091161781559251958301959095555191810191909155915192935091600382019061060a9082610d18565b50608082015160048201805460ff90921660ff1992831617905560a0830151600583015560c0909201516006909101805491151591909216179055604051339082907f3899dc0cc974de7c5bd5ff45838537d2c0ca4dd5afb8094c22f920cdfa47f8a99061067b908a815260200190565b60405180910390a39695505050505050565b610695610918565b61069f6000610945565b565b600260208190526000918252604090912080546001820154928201546003830180546001600160a01b03909316949391926106db90610c8f565b80601f016020809104026020016040519081016040528092919081815260200182805461070790610c8f565b80156107545780601f1061072957610100808354040283529160200191610754565b820191906000526020600020905b81548152906001019060200180831161073757829003601f168201915b5050505060048301546005840154600690940154929360ff918216939092501687565b61077f610918565b6001600160a01b0381166107a957604051631e4fbdf760e01b81526000600482015260240161028f565b6107b281610945565b50565b606060008290506000815167ffffffffffffffff8111156107d8576107d8610995565b6040519080825280601f01601f191660200182016040528015610802576020820181803683370190505b50905060005b825181101561091057604183828151811061082557610825610dd8565b016020015160f81c108015906108555750605a83828151811061084a5761084a610dd8565b016020015160f81c11155b156108b75782818151811061086c5761086c610dd8565b602001015160f81c60f81b60f81c60206108869190610dee565b60f81b82828151811061089b5761089b610dd8565b60200101906001600160f81b031916908160001a9053506108fe565b8281815181106108c9576108c9610dd8565b602001015160f81c60f81b8282815181106108e6576108e6610dd8565b60200101906001600160f81b031916908160001a9053505b8061090881610c46565b915050610808565b509392505050565b6000546001600160a01b0316331461069f5760405163118cdaa760e01b815233600482015260240161028f565b600080546001600160a01b038381166001600160a01b0319831681178455604051919092169283917f8be0079c531659141344cd1fd0a4f28419497f9722a3daafe3b4186f6b6457e09190a35050565b634e487b7160e01b600052604160045260246000fd5b600082601f8301126109bc57600080fd5b813567ffffffffffffffff808211156109d7576109d7610995565b604051601f8301601f19908116603f011681019082821181831017156109ff576109ff610995565b81604052838152866020858801011115610a1857600080fd5b836020870160208301376000602085830101528094505050505092915050565b60008060408385031215610a4b57600080fd5b82359150602083013567ffffffffffffffff811115610a6957600080fd5b610a75858286016109ab565b9150509250929050565b60008060008060808587031215610a9557600080fd5b843567ffffffffffffffff80821115610aad57600080fd5b610ab9888389016109ab565b9550602087013594506040870135915080821115610ad657600080fd5b50610ae3878288016109ab565b925050606085013560ff81168114610afa57600080fd5b939692955090935050565b80356001600160a01b0381168114610b1c57600080fd5b919050565b600060208284031215610b3357600080fd5b610b3c82610b05565b9392505050565b60008060408385031215610b5657600080fd5b610b5f83610b05565b946020939093013593505050565b600060208284031215610b7f57600080fd5b5035919050565b60005b83811015610ba1578181015183820152602001610b89565b50506000910152565b60018060a01b038816815286602082015285604082015260e06060820152600085518060e0840152610100610be58282860160208b01610b86565b60ff96909616608084015260a08301949094525090151560c0820152601f909101601f19160101949350505050565b60008251610c26818460208701610b86565b9190910192915050565b634e487b7160e01b600052601160045260246000fd5b600060018201610c5857610c58610c30565b5060010190565b80820180821115610c7257610c72610c30565b92915050565b8082028115828204841417610c7257610c72610c30565b600181811c90821680610ca357607f821691505b602082108103610cc357634e487b7160e01b600052602260045260246000fd5b50919050565b601f821115610d1357600081815260208120601f850160051c81016020861015610cf05750805b601f850160051c820191505b81811015610d0f57828155600101610cfc565b5050505b505050565b815167ffffffffffffffff811115610d3257610d32610995565b610d4681610d408454610c8f565b84610cc9565b602080601f831160018114610d7b5760008415610d635750858301515b600019600386901b1c1916600185901b178555610d0f565b600085815260208120601f198616915b82811015610daa57888601518255948401946001909101908401610d8b565b5085821015610dc85787850151600019600388901b60f8161c191681555b5050505050600190811b01905550565b634e487b7160e01b600052603260045260246000fd5b60ff8181168382160190811115610c7257610c72610c3056fea264697066735822122053047c4ed44474354a18faac71882f97c0e32c8c907468ecbdb33d1a8bedeb6564736f6c63430008140033","opcodes":"PUSH1 0x80 PUSH1 0x40 MSTORE PUSH1 0x1 PUSH1 0x6 SSTORE CALLVALUE DUP1 ISZERO PUSH2 0x15 JUMPI PUSH1 0x0 DUP1 REVERT JUMPDEST POP PUSH1 0x40 MLOAD PUSH2 0xF55 CODESIZE SUB DUP1 PUSH2 0xF55 DUP4 CODECOPY DUP2 ADD PUSH1 0x40 DUP2 SWAP1 MSTORE PUSH2 0x34 SWAP2 PUSH2 0xD9 JUMP JUMPDEST CALLER DUP1 PUSH2 0x5A JUMPI PUSH1 0x40 MLOAD PUSH4 0x1E4FBDF7 PUSH1 0xE0 SHL DUP2 MSTORE PUSH1 0x0 PUSH1 0x4 DUP3 ADD MSTORE PUSH1 0x24 ADD PUSH1 0x40 MLOAD DUP1 SWAP2 SUB SWAP1 REVERT JUMPDEST PUSH2 0x63 DUP2 PUSH2 0x89 JUMP JUMPDEST POP PUSH1 0x1 DUP1 SLOAD PUSH1 0x1 PUSH1 0x1 PUSH1 0xA0 SHL SUB NOT AND PUSH1 0x1 PUSH1 0x1 PUSH1 0xA0 SHL SUB SWAP3 SWAP1 SWAP3 AND SWAP2 SWAP1 SWAP2 OR SWAP1 SSTORE PUSH2 0x109 JUMP JUMPDEST PUSH1 0x0 DUP1 SLOAD PUSH1 0x1 PUSH1 0x1 PUSH1 0xA0 SHL SUB DUP4 DUP2 AND PUSH1 0x1 PUSH1 0x1 PUSH1 0xA0 SHL SUB NOT DUP4 AND DUP2 OR DUP5 SSTORE PUSH1 0x40 MLOAD SWAP2 SWAP1 SWAP3 AND SWAP3 DUP4 SWAP2 PUSH32 0x8BE0079C531659141344CD1FD0A4F28419497F9722A3DAAFE3B4186F6B6457E0 SWAP2 SWAP1 LOG3 POP POP JUMP JUMPDEST PUSH1 0x0 PUSH1 0x20 DUP3 DUP5 SUB SLT ISZERO PUSH2 0xEB JUMPI PUSH1 0x0 DUP1 REVERT JUMPDEST DUP2 MLOAD PUSH1 0x1 PUSH1 0x1 PUSH1 0xA0 SHL SUB DUP2 AND DUP2 EQ PUSH2 0x102 JUMPI PUSH1 0x0 DUP1 REVERT JUMPDEST SWAP4 SWAP3 POP POP POP JUMP JUMPDEST PUSH2 0xE3D DUP1 PUSH2 0x118 PUSH1 0x0 CODECOPY PUSH1 0x0 RETURN INVALID PUSH1 0x80 PUSH1 0x40 MSTORE CALLVALUE DUP1 ISZERO PUSH2 0x10 JUMPI PUSH1 0x0 DUP1 REVERT JUMPDEST POP PUSH1 0x4 CALLDATASIZE LT PUSH2 0xB4 JUMPI PUSH1 0x0 CALLDATALOAD PUSH1 0xE0 SHR DUP1 PUSH4 0x88409AFA GT PUSH2 0x71 JUMPI DUP1 PUSH4 0x88409AFA EQ PUSH2 0x1A5 JUMPI DUP1 PUSH4 0x8DA5CB5B EQ PUSH2 0x1CB JUMPI DUP1 PUSH4 0x94200206 EQ PUSH2 0x1F0 JUMPI DUP1 PUSH4 0xC7E82048 EQ PUSH2 0x210 JUMPI DUP1 PUSH4 0xE503F108 EQ PUSH2 0x223 JUMPI DUP1 PUSH4 0xF2FDE38B EQ PUSH2 0x22C JUMPI PUSH1 0x0 DUP1 REVERT JUMPDEST DUP1 PUSH4 0x1FA3BEC EQ PUSH2 0xB9 JUMPI DUP1 PUSH4 0xB97E0BA EQ PUSH2 0xCE JUMPI DUP1 PUSH4 0x1413D4C0 EQ PUSH2 0xF4 JUMPI DUP1 PUSH4 0x2E246786 EQ PUSH2 0x114 JUMPI DUP1 PUSH4 0x4E43603A EQ PUSH2 0x152 JUMPI DUP1 PUSH4 0x715018A6 EQ PUSH2 0x19D JUMPI JUMPDEST PUSH1 0x0 DUP1 REVERT JUMPDEST PUSH2 0xCC PUSH2 0xC7 CALLDATASIZE PUSH1 0x4 PUSH2 0xA38 JUMP JUMPDEST PUSH2 0x23F JUMP JUMPDEST STOP JUMPDEST PUSH2 0xE1 PUSH2 0xDC CALLDATASIZE PUSH1 0x4 PUSH2 0xA7F JUMP JUMPDEST PUSH2 0x4D8 JUMP JUMPDEST PUSH1 0x40 MLOAD SWAP1 DUP2 MSTORE PUSH1 0x20 ADD JUMPDEST PUSH1 0x40 MLOAD DUP1 SWAP2 SUB SWAP1 RETURN JUMPDEST PUSH2 0xE1 PUSH2 0x102 CALLDATASIZE PUSH1 0x4 PUSH2 0xB21 JUMP JUMPDEST PUSH1 0x4 PUSH1 0x20 MSTORE PUSH1 0x0 SWAP1 DUP2 MSTORE PUSH1 0x40 SWAP1 KECCAK256 SLOAD DUP2 JUMP JUMPDEST PUSH2 0x142 PUSH2 0x122 CALLDATASIZE PUSH1 0x4 PUSH2 0xB43 JUMP JUMPDEST PUSH1 0x3 PUSH1 0x20 SWAP1 DUP2 MSTORE PUSH1 0x0 SWAP3 DUP4 MSTORE PUSH1 0x40 DUP1 DUP5 KECCAK256 SWAP1 SWAP2 MSTORE SWAP1 DUP3 MSTORE SWAP1 KECCAK256 SLOAD PUSH1 0xFF AND DUP2 JUMP JUMPDEST PUSH1 0x40 MLOAD SWAP1 ISZERO ISZERO DUP2 MSTORE PUSH1 0x20 ADD PUSH2 0xEB JUMP JUMPDEST PUSH2 0x188 PUSH2 0x160 CALLDATASIZE PUSH1 0x4 PUSH2 0xB21 JUMP JUMPDEST PUSH1 0x1 PUSH1 0x1 PUSH1 0xA0 SHL SUB AND PUSH1 0x0 SWAP1 DUP2 MSTORE PUSH1 0x4 PUSH1 0x20 SWAP1 DUP2 MSTORE PUSH1 0x40 DUP1 DUP4 KECCAK256 SLOAD PUSH1 0x5 SWAP1 SWAP3 MSTORE SWAP1 SWAP2 KECCAK256 SLOAD SWAP1 SWAP2 JUMP JUMPDEST PUSH1 0x40 DUP1 MLOAD SWAP3 DUP4 MSTORE PUSH1 0x20 DUP4 ADD SWAP2 SWAP1 SWAP2 MSTORE ADD PUSH2 0xEB JUMP JUMPDEST PUSH2 0xCC PUSH2 0x68D JUMP JUMPDEST PUSH2 0x1B8 PUSH2 0x1B3 CALLDATASIZE PUSH1 0x4 PUSH2 0xB6D JUMP JUMPDEST PUSH2 0x6A1 JUMP JUMPDEST PUSH1 0x40 MLOAD PUSH2 0xEB SWAP8 SWAP7 SWAP6 SWAP5 SWAP4 SWAP3 SWAP2 SWAP1 PUSH2 0xBAA JUMP JUMPDEST PUSH1 0x0 SLOAD PUSH1 0x1 PUSH1 0x1 PUSH1 0xA0 SHL SUB AND JUMPDEST PUSH1 0x40 MLOAD PUSH1 0x1 PUSH1 0x1 PUSH1 0xA0 SHL SUB SWAP1 SWAP2 AND DUP2 MSTORE PUSH1 0x20 ADD PUSH2 0xEB JUMP JUMPDEST PUSH2 0xE1 PUSH2 0x1FE CALLDATASIZE PUSH1 0x4 PUSH2 0xB21 JUMP JUMPDEST PUSH1 0x5 PUSH1 0x20 MSTORE PUSH1 0x0 SWAP1 DUP2 MSTORE PUSH1 0x40 SWAP1 KECCAK256 SLOAD DUP2 JUMP JUMPDEST PUSH1 0x1 SLOAD PUSH2 0x1D8 SWAP1 PUSH1 0x1 PUSH1 0x1 PUSH1 0xA0 SHL SUB AND DUP2 JUMP JUMPDEST PUSH2 0xE1 PUSH1 0x6 SLOAD DUP2 JUMP JUMPDEST PUSH2 0xCC PUSH2 0x23A CALLDATASIZE PUSH1 0x4 PUSH2 0xB21 JUMP JUMPDEST PUSH2 0x777 JUMP JUMPDEST PUSH1 0x0 DUP3 DUP2 MSTORE PUSH1 0x2 PUSH1 0x20 MSTORE PUSH1 0x40 SWAP1 KECCAK256 PUSH1 0x6 DUP2 ADD SLOAD PUSH1 0xFF AND PUSH2 0x298 JUMPI PUSH1 0x40 MLOAD PUSH3 0x461BCD PUSH1 0xE5 SHL DUP2 MSTORE PUSH1 0x20 PUSH1 0x4 DUP3 ADD MSTORE PUSH1 0xF PUSH1 0x24 DUP3 ADD MSTORE PUSH15 0x5175697A206E6F7420616374697665 PUSH1 0x88 SHL PUSH1 0x44 DUP3 ADD MSTORE PUSH1 0x64 ADD JUMPDEST PUSH1 0x40 MLOAD DUP1 SWAP2 SUB SWAP1 REVERT JUMPDEST CALLER PUSH1 0x0 SWAP1 DUP2 MSTORE PUSH1 0x3 PUSH1 0x20 SWAP1 DUP2 MSTORE PUSH1 0x40 DUP1 DUP4 KECCAK256 DUP7 DUP5 MSTORE SWAP1 SWAP2 MSTORE SWAP1 KECCAK256 SLOAD PUSH1 0xFF AND ISZERO PUSH2 0x2F7 JUMPI PUSH1 0x40 MLOAD PUSH3 0x461BCD PUSH1 0xE5 SHL DUP2 MSTORE PUSH1 0x20 PUSH1 0x4 DUP3 ADD MSTORE PUSH1 0x11 PUSH1 0x24 DUP3 ADD MSTORE PUSH17 0x105B1C9958591E4818DBDB5C1B195D1959 PUSH1 0x7A SHL PUSH1 0x44 DUP3 ADD MSTORE PUSH1 0x64 ADD PUSH2 0x28F JUMP JUMPDEST PUSH1 0x0 PUSH2 0x302 DUP4 PUSH2 0x7B5 JUMP JUMPDEST PUSH1 0x40 MLOAD PUSH1 0x20 ADD PUSH2 0x312 SWAP2 SWAP1 PUSH2 0xC14 JUMP JUMPDEST PUSH1 0x40 MLOAD PUSH1 0x20 DUP2 DUP4 SUB SUB DUP2 MSTORE SWAP1 PUSH1 0x40 MSTORE DUP1 MLOAD SWAP1 PUSH1 0x20 ADD KECCAK256 SWAP1 POP PUSH1 0x0 DUP3 PUSH1 0x1 ADD SLOAD DUP3 EQ SWAP1 POP DUP1 ISZERO PUSH2 0x493 JUMPI CALLER PUSH1 0x0 SWAP1 DUP2 MSTORE PUSH1 0x3 PUSH1 0x20 SWAP1 DUP2 MSTORE PUSH1 0x40 DUP1 DUP4 KECCAK256 DUP9 DUP5 MSTORE SWAP1 SWAP2 MSTORE DUP2 KECCAK256 DUP1 SLOAD PUSH1 0xFF NOT AND PUSH1 0x1 OR SWAP1 SSTORE PUSH1 0x5 DUP5 ADD DUP1 SLOAD SWAP2 PUSH2 0x370 DUP4 PUSH2 0xC46 JUMP JUMPDEST SWAP1 SWAP2 SSTORE POP POP PUSH1 0x2 DUP4 ADD SLOAD CALLER PUSH1 0x0 SWAP1 DUP2 MSTORE PUSH1 0x4 PUSH1 0x20 MSTORE PUSH1 0x40 DUP2 KECCAK256 DUP1 SLOAD SWAP1 SWAP2 SWAP1 PUSH2 0x399 SWAP1 DUP5 SWAP1 PUSH2 0xC5F JUMP JUMPDEST SWAP1 SWAP2 SSTORE POP POP CALLER PUSH1 0x0 SWAP1 DUP2 MSTORE PUSH1 0x5 PUSH1 0x20 MSTORE PUSH1 0x40 DUP2 KECCAK256 DUP1 SLOAD SWAP2 PUSH2 0x3B9 DUP4 PUSH2 0xC46 JUMP JUMPDEST SWAP1 SWAP2 SSTORE POP POP PUSH1 0x1 SLOAD PUSH1 0x2 DUP5 ADD SLOAD PUSH1 0x1 PUSH1 0x1 PUSH1 0xA0 SHL SUB SWAP1 SWAP2 AND SWAP1 PUSH4 0x40C10F19 SWAP1 CALLER SWAP1 PUSH2 0x3EC SWAP1 PUSH8 0xDE0B6B3A7640000 PUSH2 0xC78 JUMP JUMPDEST PUSH1 0x40 MLOAD PUSH1 0x1 PUSH1 0x1 PUSH1 0xE0 SHL SUB NOT PUSH1 0xE0 DUP6 SWAP1 SHL AND DUP2 MSTORE PUSH1 0x1 PUSH1 0x1 PUSH1 0xA0 SHL SUB SWAP1 SWAP3 AND PUSH1 0x4 DUP4 ADD MSTORE PUSH1 0x24 DUP3 ADD MSTORE PUSH1 0x44 ADD PUSH1 0x0 PUSH1 0x40 MLOAD DUP1 DUP4 SUB DUP2 PUSH1 0x0 DUP8 DUP1 EXTCODESIZE ISZERO DUP1 ISZERO PUSH2 0x432 JUMPI PUSH1 0x0 DUP1 REVERT JUMPDEST POP GAS CALL ISZERO DUP1 ISZERO PUSH2 0x446 JUMPI RETURNDATASIZE PUSH1 0x0 DUP1 RETURNDATACOPY RETURNDATASIZE PUSH1 0x0 REVERT JUMPDEST POP POP POP PUSH1 0x2 DUP5 ADD SLOAD PUSH1 0x40 DUP1 MLOAD PUSH1 0x1 DUP2 MSTORE PUSH1 0x20 DUP2 ADD SWAP3 SWAP1 SWAP3 MSTORE DUP8 SWAP3 POP CALLER SWAP2 PUSH32 0x57EB53B9B5AE4706494725B8F3B3E7E772A2E2BFEA922BAEF5B0ED632499F0CB SWAP2 ADD PUSH1 0x40 MLOAD DUP1 SWAP2 SUB SWAP1 LOG3 PUSH2 0x4D1 JUMP JUMPDEST PUSH1 0x40 DUP1 MLOAD PUSH1 0x0 DUP1 DUP3 MSTORE PUSH1 0x20 DUP3 ADD MSTORE DUP7 SWAP2 CALLER SWAP2 PUSH32 0x57EB53B9B5AE4706494725B8F3B3E7E772A2E2BFEA922BAEF5B0ED632499F0CB SWAP2 ADD PUSH1 0x40 MLOAD DUP1 SWAP2 SUB SWAP1 LOG3 JUMPDEST POP POP POP POP POP JUMP JUMPDEST PUSH1 0x0 PUSH1 0x1 DUP3 PUSH1 0xFF AND LT ISZERO DUP1 ISZERO PUSH2 0x4F2 JUMPI POP PUSH1 0x5 DUP3 PUSH1 0xFF AND GT ISZERO JUMPDEST PUSH2 0x533 JUMPI PUSH1 0x40 MLOAD PUSH3 0x461BCD PUSH1 0xE5 SHL DUP2 MSTORE PUSH1 0x20 PUSH1 0x4 DUP3 ADD MSTORE PUSH1 0x12 PUSH1 0x24 DUP3 ADD MSTORE PUSH18 0x496E76616C696420646966666963756C7479 PUSH1 0x70 SHL PUSH1 0x44 DUP3 ADD MSTORE PUSH1 0x64 ADD PUSH2 0x28F JUMP JUMPDEST PUSH1 0x0 PUSH2 0x53E DUP7 PUSH2 0x7B5 JUMP JUMPDEST PUSH1 0x40 MLOAD PUSH1 0x20 ADD PUSH2 0x54E SWAP2 SWAP1 PUSH2 0xC14 JUMP JUMPDEST PUSH1 0x40 MLOAD PUSH1 0x20 DUP2 DUP4 SUB SUB DUP2 MSTORE SWAP1 PUSH1 0x40 MSTORE DUP1 MLOAD SWAP1 PUSH1 0x20 ADD KECCAK256 SWAP1 POP PUSH1 0x0 PUSH1 0x6 PUSH1 0x0 DUP2 SLOAD DUP1 SWAP3 SWAP2 SWAP1 PUSH2 0x57B SWAP1 PUSH2 0xC46 JUMP JUMPDEST SWAP1 SWAP2 SSTORE POP PUSH1 0x40 DUP1 MLOAD PUSH1 0xE0 DUP2 ADD DUP3 MSTORE CALLER DUP2 MSTORE PUSH1 0x20 DUP1 DUP3 ADD DUP7 DUP2 MSTORE DUP3 DUP5 ADD DUP12 DUP2 MSTORE PUSH1 0x60 DUP5 ADD DUP12 DUP2 MSTORE PUSH1 0xFF DUP12 AND PUSH1 0x80 DUP7 ADD MSTORE PUSH1 0x0 PUSH1 0xA0 DUP7 ADD DUP2 SWAP1 MSTORE PUSH1 0x1 PUSH1 0xC0 DUP8 ADD DUP2 SWAP1 MSTORE DUP9 DUP3 MSTORE PUSH1 0x2 SWAP6 DUP7 SWAP1 MSTORE SWAP7 SWAP1 KECCAK256 DUP6 MLOAD DUP2 SLOAD PUSH1 0x1 PUSH1 0x1 PUSH1 0xA0 SHL SUB NOT AND PUSH1 0x1 PUSH1 0x1 PUSH1 0xA0 SHL SUB SWAP1 SWAP2 AND OR DUP2 SSTORE SWAP3 MLOAD SWAP6 DUP4 ADD SWAP6 SWAP1 SWAP6 SSTORE MLOAD SWAP2 DUP2 ADD SWAP2 SWAP1 SWAP2 SSTORE SWAP2 MLOAD SWAP3 SWAP4 POP SWAP2 PUSH1 0x3 DUP3 ADD SWAP1 PUSH2 0x60A SWAP1 DUP3 PUSH2 0xD18 JUMP JUMPDEST POP PUSH1 0x80 DUP3 ADD MLOAD PUSH1 0x4 DUP3 ADD DUP1 SLOAD PUSH1 0xFF SWAP1 SWAP3 AND PUSH1 0xFF NOT SWAP3 DUP4 AND OR SWAP1 SSTORE PUSH1 0xA0 DUP4 ADD MLOAD PUSH1 0x5 DUP4 ADD SSTORE PUSH1 0xC0 SWAP1 SWAP3 ADD MLOAD PUSH1 0x6 SWAP1 SWAP2 ADD DUP1 SLOAD SWAP2 ISZERO ISZERO SWAP2 SWAP1 SWAP3 AND OR SWAP1 SSTORE PUSH1 0x40 MLOAD CALLER SWAP1 DUP3 SWAP1 PUSH32 0x3899DC0CC974DE7C5BD5FF45838537D2C0CA4DD5AFB8094C22F920CDFA47F8A9 SWAP1 PUSH2 0x67B SWAP1 DUP11 DUP2 MSTORE PUSH1 0x20 ADD SWAP1 JUMP JUMPDEST PUSH1 0x40 MLOAD DUP1 SWAP2 SUB SWAP1 LOG3 SWAP7 SWAP6 POP POP POP POP POP POP JUMP JUMPDEST PUSH2 0x695 PUSH2 0x918 JUMP JUMPDEST PUSH2 0x69F PUSH1 0x0 PUSH2 0x945 JUMP JUMPDEST JUMP JUMPDEST PUSH1 0x2 PUSH1 0x20 DUP2 SWAP1 MSTORE PUSH1 0x0 SWAP2 DUP3 MSTORE PUSH1 0x40 SWAP1 SWAP2 KECCAK256 DUP1 SLOAD PUSH1 0x1 DUP3 ADD SLOAD SWAP3 DUP3 ADD SLOAD PUSH1 0x3 DUP4 ADD DUP1 SLOAD PUSH1 0x1 PUSH1 0x1 PUSH1 0xA0 SHL SUB SWAP1 SWAP4 AND SWAP5 SWAP4 SWAP2 SWAP3 PUSH2 0x6DB SWAP1 PUSH2 0xC8F JUMP JUMPDEST DUP1 PUSH1 0x1F ADD PUSH1 0x20 DUP1 SWAP2 DIV MUL PUSH1 0x20 ADD PUSH1 0x40 MLOAD SWAP1 DUP2 ADD PUSH1 0x40 MSTORE DUP1 SWAP3 SWAP2 SWAP1 DUP2 DUP2 MSTORE PUSH1 0x20 ADD DUP3 DUP1 SLOAD PUSH2 0x707 SWAP1 PUSH2 0xC8F JUMP JUMPDEST DUP1 ISZERO PUSH2 0x754 JUMPI DUP1 PUSH1 0x1F LT PUSH2 0x729 JUMPI PUSH2 0x100 DUP1 DUP4 SLOAD DIV MUL DUP4 MSTORE SWAP2 PUSH1 0x20 ADD SWAP2 PUSH2 0x754 JUMP JUMPDEST DUP3 ADD SWAP2 SWAP1 PUSH1 0x0 MSTORE PUSH1 0x20 PUSH1 0x0 KECCAK256 SWAP1 JUMPDEST DUP2 SLOAD DUP2 MSTORE SWAP1 PUSH1 0x1 ADD SWAP1 PUSH1 0x20 ADD DUP1 DUP4 GT PUSH2 0x737 JUMPI DUP3 SWAP1 SUB PUSH1 0x1F AND DUP3 ADD SWAP2 JUMPDEST POP POP POP POP PUSH1 0x4 DUP4 ADD SLOAD PUSH1 0x5 DUP5 ADD SLOAD PUSH1 0x6 SWAP1 SWAP5 ADD SLOAD SWAP3 SWAP4 PUSH1 0xFF SWAP2 DUP3 AND SWAP4 SWAP1 SWAP3 POP AND DUP8 JUMP JUMPDEST PUSH2 0x77F PUSH2 0x918 JUMP JUMPDEST PUSH1 0x1 PUSH1 0x1 PUSH1 0xA0 SHL SUB DUP2 AND PUSH2 0x7A9 JUMPI PUSH1 0x40 MLOAD PUSH4 0x1E4FBDF7 PUSH1 0xE0 SHL DUP2 MSTORE PUSH1 0x0 PUSH1 0x4 DUP3 ADD MSTORE PUSH1 0x24 ADD PUSH2 0x28F JUMP JUMPDEST PUSH2 0x7B2 DUP2 PUSH2 0x945 JUMP JUMPDEST POP JUMP JUMPDEST PUSH1 0x60 PUSH1 0x0 DUP3 SWAP1 POP PUSH1 0x0 DUP2 MLOAD PUSH8 0xFFFFFFFFFFFFFFFF DUP2 GT ISZERO PUSH2 0x7D8 JUMPI PUSH2 0x7D8 PUSH2 0x995 JUMP JUMPDEST PUSH1 0x40 MLOAD SWAP1 DUP1 DUP3 MSTORE DUP1 PUSH1 0x1F ADD PUSH1 0x1F NOT AND PUSH1 0x20 ADD DUP3 ADD PUSH1 0x40 MSTORE DUP1 ISZERO PUSH2 0x802 JUMPI PUSH1 0x20 DUP3 ADD DUP2 DUP1 CALLDATASIZE DUP4 CALLDATACOPY ADD SWAP1 POP JUMPDEST POP SWAP1 POP PUSH1 0x0 JUMPDEST DUP3 MLOAD DUP2 LT ISZERO PUSH2 0x910 JUMPI PUSH1 0x41 DUP4 DUP3 DUP2 MLOAD DUP2 LT PUSH2 0x825 JUMPI PUSH2 0x825 PUSH2 0xDD8 JUMP JUMPDEST ADD PUSH1 0x20 ADD MLOAD PUSH1 0xF8 SHR LT DUP1 ISZERO SWAP1 PUSH2 0x855 JUMPI POP PUSH1 0x5A DUP4 DUP3 DUP2 MLOAD DUP2 LT PUSH2 0x84A JUMPI PUSH2 0x84A PUSH2 0xDD8 JUMP JUMPDEST ADD PUSH1 0x20 ADD MLOAD PUSH1 0xF8 SHR GT ISZERO JUMPDEST ISZERO PUSH2 0x8B7 JUMPI DUP3 DUP2 DUP2 MLOAD DUP2 LT PUSH2 0x86C JUMPI PUSH2 0x86C PUSH2 0xDD8 JUMP JUMPDEST PUSH1 0x20 ADD ADD MLOAD PUSH1 0xF8 SHR PUSH1 0xF8 SHL PUSH1 0xF8 SHR PUSH1 0x20 PUSH2 0x886 SWAP2 SWAP1 PUSH2 0xDEE JUMP JUMPDEST PUSH1 0xF8 SHL DUP3 DUP3 DUP2 MLOAD DUP2 LT PUSH2 0x89B JUMPI PUSH2 0x89B PUSH2 0xDD8 JUMP JUMPDEST PUSH1 0x20 ADD ADD SWAP1 PUSH1 0x1 PUSH1 0x1 PUSH1 0xF8 SHL SUB NOT AND SWAP1 DUP2 PUSH1 0x0 BYTE SWAP1 MSTORE8 POP PUSH2 0x8FE JUMP JUMPDEST DUP3 DUP2 DUP2 MLOAD DUP2 LT PUSH2 0x8C9 JUMPI PUSH2 0x8C9 PUSH2 0xDD8 JUMP JUMPDEST PUSH1 0x20 ADD ADD MLOAD PUSH1 0xF8 SHR PUSH1 0xF8 SHL DUP3 DUP3 DUP2 MLOAD DUP2 LT PUSH2 0x8E6 JUMPI PUSH2 0x8E6 PUSH2 0xDD8 JUMP JUMPDEST PUSH1 0x20 ADD ADD SWAP1 PUSH1 0x1 PUSH1 0x1 PUSH1 0xF8 SHL SUB NOT AND SWAP1 DUP2 PUSH1 0x0 BYTE SWAP1 MSTORE8 POP JUMPDEST DUP1 PUSH2 0x908 DUP2 PUSH2 0xC46 JUMP JUMPDEST SWAP2 POP POP PUSH2 0x808 JUMP JUMPDEST POP SWAP4 SWAP3 POP POP POP JUMP JUMPDEST PUSH1 0x0 SLOAD PUSH1 0x1 PUSH1 0x1 PUSH1 0xA0 SHL SUB AND CALLER EQ PUSH2 0x69F JUMPI PUSH1 0x40 MLOAD PUSH4 0x118CDAA7 PUSH1 0xE0 SHL DUP2 MSTORE CALLER PUSH1 0x4 DUP3 ADD MSTORE PUSH1 0x24 ADD PUSH2 0x28F JUMP JUMPDEST PUSH1 0x0 DUP1 SLOAD PUSH1 0x1 PUSH1 0x1 PUSH1 0xA0 SHL SUB DUP4 DUP2 AND PUSH1 0x1 PUSH1 0x1 PUSH1 0xA0 SHL SUB NOT DUP4 AND DUP2 OR DUP5 SSTORE PUSH1 0x40 MLOAD SWAP2 SWAP1 SWAP3 AND SWAP3 DUP4 SWAP2 PUSH32 0x8BE0079C531659141344CD1FD0A4F28419497F9722A3DAAFE3B4186F6B6457E0 SWAP2 SWAP1 LOG3 POP POP JUMP JUMPDEST PUSH4 0x4E487B71 PUSH1 0xE0 SHL PUSH1 0x0 MSTORE PUSH1 0x41 PUSH1 0x4 MSTORE PUSH1 0x24 PUSH1 0x0 REVERT JUMPDEST PUSH1 0x0 DUP3 PUSH1 0x1F DUP4 ADD SLT PUSH2 0x9BC JUMPI PUSH1 0x0 DUP1 REVERT JUMPDEST DUP2 CALLDATALOAD PUSH8 0xFFFFFFFFFFFFFFFF DUP1 DUP3 GT ISZERO PUSH2 0x9D7 JUMPI PUSH2 0x9D7 PUSH2 0x995 JUMP JUMPDEST PUSH1 0x40 MLOAD PUSH1 0x1F DUP4 ADD PUSH1 0x1F NOT SWAP1 DUP2 AND PUSH1 0x3F ADD AND DUP2 ADD SWAP1 DUP3 DUP3 GT DUP2 DUP4 LT OR ISZERO PUSH2 0x9FF JUMPI PUSH2 0x9FF PUSH2 0x995 JUMP JUMPDEST DUP2 PUSH1 0x40 MSTORE DUP4 DUP2 MSTORE DUP7 PUSH1 0x20 DUP6 DUP9 ADD ADD GT ISZERO PUSH2 0xA18 JUMPI PUSH1 0x0 DUP1 REVERT JUMPDEST DUP4 PUSH1 0x20 DUP8 ADD PUSH1 0x20 DUP4 ADD CALLDATACOPY PUSH1 0x0 PUSH1 0x20 DUP6 DUP4 ADD ADD MSTORE DUP1 SWAP5 POP POP POP POP POP SWAP3 SWAP2 POP POP JUMP JUMPDEST PUSH1 0x0 DUP1 PUSH1 0x40 DUP4 DUP6 SUB SLT ISZERO PUSH2 0xA4B JUMPI PUSH1 0x0 DUP1 REVERT JUMPDEST DUP3 CALLDATALOAD SWAP2 POP PUSH1 0x20 DUP4 ADD CALLDATALOAD PUSH8 0xFFFFFFFFFFFFFFFF DUP2 GT ISZERO PUSH2 0xA69 JUMPI PUSH1 0x0 DUP1 REVERT JUMPDEST PUSH2 0xA75 DUP6 DUP3 DUP7 ADD PUSH2 0x9AB JUMP JUMPDEST SWAP2 POP POP SWAP3 POP SWAP3 SWAP1 POP JUMP JUMPDEST PUSH1 0x0 DUP1 PUSH1 0x0 DUP1 PUSH1 0x80 DUP6 DUP8 SUB SLT ISZERO PUSH2 0xA95 JUMPI PUSH1 0x0 DUP1 REVERT JUMPDEST DUP5 CALLDATALOAD PUSH8 0xFFFFFFFFFFFFFFFF DUP1 DUP3 GT ISZERO PUSH2 0xAAD JUMPI PUSH1 0x0 DUP1 REVERT JUMPDEST PUSH2 0xAB9 DUP9 DUP4 DUP10 ADD PUSH2 0x9AB JUMP JUMPDEST SWAP6 POP PUSH1 0x20 DUP8 ADD CALLDATALOAD SWAP5 POP PUSH1 0x40 DUP8 ADD CALLDATALOAD SWAP2 POP DUP1 DUP3 GT ISZERO PUSH2 0xAD6 JUMPI PUSH1 0x0 DUP1 REVERT JUMPDEST POP PUSH2 0xAE3 DUP8 DUP3 DUP9 ADD PUSH2 0x9AB JUMP JUMPDEST SWAP3 POP POP PUSH1 0x60 DUP6 ADD CALLDATALOAD PUSH1 0xFF DUP2 AND DUP2 EQ PUSH2 0xAFA JUMPI PUSH1 0x0 DUP1 REVERT JUMPDEST SWAP4 SWAP7 SWAP3 SWAP6 POP SWAP1 SWAP4 POP POP JUMP JUMPDEST DUP1 CALLDATALOAD PUSH1 0x1 PUSH1 0x1 PUSH1 0xA0 SHL SUB DUP2 AND DUP2 EQ PUSH2 0xB1C JUMPI PUSH1 0x0 DUP1 REVERT JUMPDEST SWAP2 SWAP1 POP JUMP JUMPDEST PUSH1 0x0 PUSH1 0x20 DUP3 DUP5 SUB SLT ISZERO PUSH2 0xB33 JUMPI PUSH1 0x0 DUP1 REVERT JUMPDEST PUSH2 0xB3C DUP3 PUSH2 0xB05 JUMP JUMPDEST SWAP4 SWAP3 POP POP POP JUMP JUMPDEST PUSH1 0x0 DUP1 PUSH1 0x40 DUP4 DUP6 SUB SLT ISZERO PUSH2 0xB56 JUMPI PUSH1 0x0 DUP1 REVERT JUMPDEST PUSH2 0xB5F DUP4 PUSH2 0xB05 JUMP JUMPDEST SWAP5 PUSH1 0x20 SWAP4 SWAP1 SWAP4 ADD CALLDATALOAD SWAP4 POP POP POP JUMP JUMPDEST PUSH1 0x0 PUSH1 0x20 DUP3 DUP5 SUB SLT ISZERO PUSH2 0xB7F JUMPI PUSH1 0x0 DUP1 REVERT JUMPDEST POP CALLDATALOAD SWAP2 SWAP1 POP JUMP JUMPDEST PUSH1 0x0 JUMPDEST DUP4 DUP2 LT ISZERO PUSH2 0xBA1 JUMPI DUP2 DUP2 ADD MLOAD DUP4 DUP3 ADD MSTORE PUSH1 0x20 ADD PUSH2 0xB89 JUMP JUMPDEST POP POP PUSH1 0x0 SWAP2 ADD MSTORE JUMP JUMPDEST PUSH1 0x1 DUP1 PUSH1 0xA0 SHL SUB DUP9 AND DUP2 MSTORE DUP7 PUSH1 0x20 DUP3 ADD MSTORE DUP6 PUSH1 0x40 DUP3 ADD MSTORE PUSH1 0xE0 PUSH1 0x60 DUP3 ADD MSTORE PUSH1 0x0 DUP6 MLOAD DUP1 PUSH1 0xE0 DUP5 ADD MSTORE PUSH2 0x100 PUSH2 0xBE5 DUP3 DUP3 DUP7 ADD PUSH1 0x20 DUP12 ADD PUSH2 0xB86 JUMP JUMPDEST PUSH1 0xFF SWAP7 SWAP1 SWAP7 AND PUSH1 0x80 DUP5 ADD MSTORE PUSH1 0xA0 DUP4 ADD SWAP5 SWAP1 SWAP5 MSTORE POP SWAP1 ISZERO ISZERO PUSH1 0xC0 DUP3 ADD MSTORE PUSH1 0x1F SWAP1 SWAP2 ADD PUSH1 0x1F NOT AND ADD ADD SWAP5 SWAP4 POP POP POP POP JUMP JUMPDEST PUSH1 0x0 DUP3 MLOAD PUSH2 0xC26 DUP2 DUP5 PUSH1 0x20 DUP8 ADD PUSH2 0xB86 JUMP JUMPDEST SWAP2 SWAP1 SWAP2 ADD SWAP3 SWAP2 POP POP JUMP JUMPDEST PUSH4 0x4E487B71 PUSH1 0xE0 SHL PUSH1 0x0 MSTORE PUSH1 0x11 PUSH1 0x4 MSTORE PUSH1 0x24 PUSH1 0x0 REVERT JUMPDEST PUSH1 0x0 PUSH1 0x1 DUP3 ADD PUSH2 0xC58 JUMPI PUSH2 0xC58 PUSH2 0xC30 JUMP JUMPDEST POP PUSH1 0x1 ADD SWAP1 JUMP JUMPDEST DUP1 DUP3 ADD DUP1 DUP3 GT ISZERO PUSH2 0xC72 JUMPI PUSH2 0xC72 PUSH2 0xC30 JUMP JUMPDEST SWAP3 SWAP2 POP POP JUMP JUMPDEST DUP1 DUP3 MUL DUP2 ISZERO DUP3 DUP3 DIV DUP5 EQ OR PUSH2 0xC72 JUMPI PUSH2 0xC72 PUSH2 0xC30 JUMP JUMPDEST PUSH1 0x1 DUP2 DUP2 SHR SWAP1 DUP3 AND DUP1 PUSH2 0xCA3 JUMPI PUSH1 0x7F DUP3 AND SWAP2 POP JUMPDEST PUSH1 0x20 DUP3 LT DUP2 SUB PUSH2 0xCC3 JUMPI PUSH4 0x4E487B71 PUSH1 0xE0 SHL PUSH1 0x0 MSTORE PUSH1 0x22 PUSH1 0x4 MSTORE PUSH1 0x24 PUSH1 0x0 REVERT JUMPDEST POP SWAP2 SWAP1 POP JUMP JUMPDEST PUSH1 0x1F DUP3 GT ISZERO PUSH2 0xD13 JUMPI PUSH1 0x0 DUP2 DUP2 MSTORE PUSH1 0x20 DUP2 KECCAK256 PUSH1 0x1F DUP6 ADD PUSH1 0x5 SHR DUP2 ADD PUSH1 0x20 DUP7 LT ISZERO PUSH2 0xCF0 JUMPI POP DUP1 JUMPDEST PUSH1 0x1F DUP6 ADD PUSH1 0x5 SHR DUP3 ADD SWAP2 POP JUMPDEST DUP2 DUP2 LT ISZERO PUSH2 0xD0F JUMPI DUP3 DUP2 SSTORE PUSH1 0x1 ADD PUSH2 0xCFC JUMP JUMPDEST POP POP POP JUMPDEST POP POP POP JUMP JUMPDEST DUP2 MLOAD PUSH8 0xFFFFFFFFFFFFFFFF DUP2 GT ISZERO PUSH2 0xD32 JUMPI PUSH2 0xD32 PUSH2 0x995 JUMP JUMPDEST PUSH2 0xD46 DUP2 PUSH2 0xD40 DUP5 SLOAD PUSH2 0xC8F JUMP JUMPDEST DUP5 PUSH2 0xCC9 JUMP JUMPDEST PUSH1 0x20 DUP1 PUSH1 0x1F DUP4 GT PUSH1 0x1 DUP2 EQ PUSH2 0xD7B JUMPI PUSH1 0x0 DUP5 ISZERO PUSH2 0xD63 JUMPI POP DUP6 DUP4 ADD MLOAD JUMPDEST PUSH1 0x0 NOT PUSH1 0x3 DUP7 SWAP1 SHL SHR NOT AND PUSH1 0x1 DUP6 SWAP1 SHL OR DUP6 SSTORE PUSH2 0xD0F JUMP JUMPDEST PUSH1 0x0 DUP6 DUP2 MSTORE PUSH1 0x20 DUP2 KECCAK256 PUSH1 0x1F NOT DUP7 AND SWAP2 JUMPDEST DUP3 DUP2 LT ISZERO PUSH2 0xDAA JUMPI DUP9 DUP7 ADD MLOAD DUP3 SSTORE SWAP5 DUP5 ADD SWAP5 PUSH1 0x1 SWAP1 SWAP2 ADD SWAP1 DUP5 ADD PUSH2 0xD8B JUMP JUMPDEST POP DUP6 DUP3 LT ISZERO PUSH2 0xDC8 JUMPI DUP8 DUP6 ADD MLOAD PUSH1 0x0 NOT PUSH1 0x3 DUP9 SWAP1 SHL PUSH1 0xF8 AND SHR NOT AND DUP2 SSTORE JUMPDEST POP POP POP POP POP PUSH1 0x1 SWAP1 DUP2 SHL ADD SWAP1 SSTORE POP JUMP JUMPDEST PUSH4 0x4E487B71 PUSH1 0xE0 SHL PUSH1 0x0 MSTORE PUSH1 0x32 PUSH1 0x4 MSTORE PUSH1 0x24 PUSH1 0x0 REVERT JUMPDEST PUSH1 0xFF DUP2 DUP2 AND DUP4 DUP3 AND ADD SWAP1 DUP2 GT ISZERO PUSH2 0xC72 JUMPI PUSH2 0xC72 PUSH2 0xC30 JUMP INVALID LOG2 PUSH5 0x6970667358 0x22 SLT KECCAK256 MSTORE8 DIV PUSH29 0x4ED44474354A18FAAC71882F97C0E32C8C907468ECBDB33D1A8BEDEB65 PUSH5 0x736F6C6343 STOP ADDMOD EQ STOP CALLER "},"methodIdentifiers":{"createQuiz(string,uint256,string,uint8)":"0b97e0ba","getUserStats(address)":"4e43603a","hasCompleted(address,uint256)":"2e246786","learnToken()":"c7e82048","nextQuizId()":"e503f108","owner()":"8da5cb5b","quizzes(uint256)":"88409afa","renounceOwnership()":"715018a6","submitAnswer(uint256,string)":"01fa3bec","transferOwnership(address)":"f2fde38b","userCompletions(address)":"94200206","userScores(address)":"1413d4c0"}}}}}